:100000000C9471000C940E080C94E7070C94990062
:100010000C9499000C9499000C9499000C949900FC
:100020000C9499000C9499000C9499000C949900EC
:100030000C9499000C9499000C9499000C949900DC
:100040000C949D070C9499000C946B070C94450735
:100050000C9499000C9499000C9499000C949900BC
:100060000C9435080C94990007634236B79BD8A7C7
:100070001A39685618AEBAAB558C1D3CB7CC5763CD
:10008000BD6DEDFD753EF6177231BF000000803F7B
:1000900000000000240027002A00000000002500C6
:1000A00028002B00040404040404040402020202D5
:1000B000020203030303030301020408102040802B
:1000C00001020408102001020408102000000008AA
:1000D000000201000003040700000000000000000F
:1000E000540911241FBECFEFD8E0DEBFCDBF23E0FF
:1000F000AEE5B1E001C01D92A632B207E1F711E012
:10010000A0E0B1E0E8E4FFE102C005900D92AE3559
:10011000B107D9F710E0C1E7D0E004C02197FE0194
:100120000E94970FC037D107C9F70E94520A0C945A
:10013000A20F0C94000020911A0281E0213208F0F5
:1001400044C08091F6018111FCCF8091190292E0A8
:100150009093F60191E09093F5019FEF9093F40155
:100160001092F3012093F201A9EFB1E0E2EDF1E08A
:1001700090E0291331C01092D1019091D101880FE4
:10018000892B8093D1018091D001813049F5109263
:10019000D0018091D1018093BB008091BC0083FD90
:1001A000F8CF85EC8093BC008091F6018230E1F3BA
:1001B0008091F4018F3FB1F08091F4018032A1F081
:1001C0008091F401803391F084E01092F801109254
:1001D0001A021092F70108953D9131939F5FC9CFA4
:1001E00085EEE0CF80E0F1CF82E0EFCF83E0EDCF8E
:1001F0000895AF92BF92CF92DF92EF92FF920F934A
:100200001F93CF93DF936C017B018B01040F151FAC
:10021000EB015E01AE18BF08C017D10759F0699114
:10022000D601ED91FC910190F081E02DC601099578
:10023000892B79F7C501DF91CF911F910F91FF9025
:10024000EF90DF90CF90BF90AF900895FC01538D59
:10025000448D252F30E0842F90E0821B930B5417A0
:1002600010F0CF96089501970895FC01918D828D2D
:10027000981761F0A28DAE0FBF2FB11D5D968C91C6
:10028000928D9F5F9F73928F90E008958FEF9FEF05
:100290000895FC01918D828D981731F0828DE80FC1
:1002A000F11D858D90E008958FEF9FEF0895FC017B
:1002B000918D228D892F90E0805C9F4F821B910948
:1002C0008F73992708958BE192E00E94570121E0F6
:1002D000892B09F420E0822F089580E090E0892B9B
:1002E00029F00E94630181110C9400000895FC0123
:1002F000A48DA80FB92FB11DA35ABF4F2C91848D87
:1003000090E001968F739927848FA689B7892C93E3
:10031000A089B1898C91837080648C93938D848D36
:10032000981306C00288F389E02D80818F7D808339
:100330000895EF92FF920F931F93CF93DF93EC01F9
:1003400081E0888F9B8D8C8D98131AC0E889F9897C
:10035000808185FF15C09FB7F894EE89FF8960837F
:10036000E889F98980818370806480839FBF81E000
:1003700090E0DF91CF911F910F91FF90EF90089542
:10038000F62E0B8D10E00F5F1F4F0F731127E02E1D
:100390008C8D8E110CC00FB607FCFACFE889F98955
:1003A000808185FFF5CFCE010E947701F1CFEB8DE3
:1003B000EC0FFD2FF11DE35AFF4FF0829FB7F89429
:1003C0000B8FEA89FB8980818062CFCFCF93DF9347
:1003D000EC01888D8823B9F0AA89BB89E889F9895D
:1003E0008C9185FD03C0808186FD0DC00FB607FC92
:1003F000F7CF8C9185FFF2CF808185FFEDCFCE01C5
:100400000E947701E9CFDF91CF91089590E0FC0140
:10041000E453FF4F2491FC01E854FF4F3491FC0159
:10042000EC55FF4FE491EE23C9F0222339F023303D
:1004300001F1A8F4213019F1223029F1F0E0EE0F9A
:10044000FF1FE656FF4FA591B4918FB7F894EC913A
:10045000611126C030953E233C938FBF089527300D
:10046000A9F02830C9F0243049F7809180008F7DB1
:1004700003C0809180008F7780938000DFCF84B5A8
:100480008F7784BDDBCF84B58F7DFBCF8091B000AB
:100490008F778093B000D2CF8091B0008F7DF9CF5D
:1004A0003E2BDACFCF93DF9390E0FC01E854FF4F6F
:1004B00024918C559F4FFC0184918823D1F090E0CA
:1004C000880F991FFC01E057FF4FA591B491FC01E3
:1004D000E656FF4FC591D491623071F49FB7F894FE
:1004E0003C91822F809583238C93E8812E2B288347
:1004F0009FBFDF91CF9108958FB7F894EC912E2B89
:100500002C938FBFF6CF3FB7F8948091CC01909198
:10051000CD01A091CE01B091CF0126B5A89B05C019
:100520002F3F19F00196A11DB11D3FBFBA2FA92F72
:10053000982F8827BC01CD01620F711D811D911D6F
:1005400042E0660F771F881F991F4A95D1F70895DB
:100550002FB7F8946091C8017091C9018091CA01C8
:100560009091CB012FBF0895089585ED8093BC0035
:100570008091BC0084FDFCCF1092F601089520917B
:10058000A201260F3327331F21323105ECF42091CD
:10059000F601FC0190E080E0243069F082E00895EB
:1005A000A091A2012191AC0140585E4FA40FB52F3C
:1005B000B11D2C930196861798F38091A201680FC4
:1005C0006093A20180E0089581E008950895089560
:1005D000E0917F0180917E01E81730F4F0E0E25A6B
:1005E000FE4F808190E008958FEF9FEF08959091E6
:1005F0007F0180917E012FEF3FEF981748F4E92F9C
:10060000F0E0E25AFE4F208130E09F5F90937F013F
:10061000C901089580917E0190917F01891B990BFA
:100620000895CF92DF92EF92FF920F931F93CF9393
:10063000DF937C01CB018A012091F701222389F00D
:10064000EB016B01C40ED51ECC15DD0569F0699177
:10065000D701ED91FC910190F081E02DC701099542
:10066000F3CF642F0E94BF02C801DF91CF911F9189
:100670000F91FF90EF90DF90CF900895CF93DF938D
:100680001F92CDB7DEB769832091F7012223F9F0DD
:1006900020911A02203258F021E030E0FC0133832F
:1006A000228390E080E00F90DF91CF9108958091B8
:1006B000F801E82FF0E0E750FE4F998190838F5FBB
:1006C0008093F80180931A0281E090E0ECCF61E022
:1006D000CE0101960E94BF02F7CF21E001C0220F98
:1006E0006A95EAF7DC011C962C931C971A965C938A
:1006F0004E931997ED91FC910484F585E02D60E00F
:100700000994DC01ED91FC910684F785E02D41E030
:10071000099581E090E00895DC01ED91FC9106845B
:10072000F785E02D40E00994CF93DF93CDB7DEB796
:1007300028970FB6F894DEBF0FBECDBF40910401DD
:100740005091050160910601709107014D835E8310
:100750006F837887409108015091090160910A01E7
:1007600070910B0149835A836B837C832091FD0236
:10077000821710F08FEF820F90E03091FE028C0F05
:100780009D1FFC01303181F4243071F46181606877
:1007900086EF92E028960FB6F894DEBF0FBECDBF6D
:1007A000DF91CF910C948C036581F1CF8F929F9252
:1007B000AF92BF92CF92DF92EF92FF920F931F936F
:1007C000CF93DF93EC01423018F08C8188608C83EA
:1007D0004F836887222329F0413019F48C8184608B
:1007E0008C830E9483024B015C0184E6C82ED12CCD
:1007F000E12CF12C0E948302681979098A099B096E
:10080000683E734081059105A8F321E0C21AD10822
:10081000E108F10888EE880E83E0981EA11CB11C47
:10082000C114D104E104F10429F76C8164FD64C0B2
:10083000E881F9810684F785E02D42E063E0CE018E
:1008400009958BE496E40197F1F7E881F981068434
:10085000F785E02D42E063E0CE01099503E512E063
:10086000C8010197F1F7E881F9810684F785E02D49
:1008700042E063E0CE010995C8010197F1F7E881F4
:10088000F9810684F785E02D42E062E0CE0109950A
:10089000C8010197F1F76C816062CE010E948C0360
:1008A0008BEE90E00197F1F784E08D836CE0CE0150
:1008B0000E948C0361E0CE010E948C038BE39FE1D8
:1008C0000197F1F782E08E8366E0CE010E948C03EF
:1008D000E881F9810484F585E02D6FEFCE01DF9189
:1008E000CF911F910F91FF90EF90DF90CF90BF902D
:1008F000AF909F908F9009946062CE010E948C030C
:100900008BE496E40197F1F76C816062CE010E945E
:100910008C0303E512E0C8010197F1F76C81606276
:10092000CE010E948C03B4CF08950895089590E0FD
:1009300080E00895FC0123812223E1F08181682B6E
:100940006083828191E09093F70180931902109265
:10095000F80110921A0288EB92E00E943E030E9476
:100960009B00282F30E081E090E0232B11F090E0F5
:1009700080E0089530E020E0F6CFEF92FF920F93F1
:100980001F93CF938C01FC0184E0C0E0262F30E060
:1009900060FF02C09589C92BB90175956795815093
:1009A00031968111F3CF413011F4F8014489F801F7
:1009B0006585C62BC42B7801FEE0EF0EF11CF80113
:1009C00062896C2BC7010E949A04F80162896095C4
:1009D0006C23C701CF911F910F91FF90EF900C9462
:1009E0009A040F931F93CF93DF93062F0F7042301B
:1009F00041F440E0602FDF91CF911F910F910C9453
:100A0000BD04142FEC0170E084E0759567958A951C
:100A1000E1F7CE010E94BD04412F602FCE01EBCF44
:100A2000FC0184858823A1F02185328521153105BB
:100A300021F4611107C0158606C021303105D9F7B0
:100A40006111F9CF85876585CF010E960C949A04C4
:100A50000895EF92FF920F931F93CF93DF93EC01D2
:100A6000062FF42EE22E8B85888B10927F01109238
:100A70007E011092F80110921A021092F60111E014
:100A80001093F5011092D00161E082E10E9406020C
:100A900061E083E10E9406028091B9008E7F80931D
:100AA000B9008091B9008D7F8093B90088E480936C
:100AB000B80085E48093BC0086EE92E09093A1019B
:100AC0008093A00187EE92E09093A5018093A4010A
:100AD00088891093F701809319021092F8011092FF
:100AE0001A020E949B0081111CC0198B88EB92E0B6
:100AF0000E94F7028E878989882339F01F861C821D
:100B000060E0CE010E960E949A042E2D4F2D602F8C
:100B1000CE01DF91CF911F910F91FF90EF900C9438
:100B2000D603198AE8CFE4ECF2E086A197A10196FA
:100B300097A386A30895E4ECF2E086859785019655
:100B40009787868708950E949D0FFB0101900020E2
:100B5000E9F73197AF01461B570BDC01ED91FC9192
:100B60000280F381E02D09948F929F92AF92BF9201
:100B7000CF92DF92EF92FF920F931F93CF93DF9369
:100B8000CDB7DEB7A1970FB6F894DEBF0FBECDBFCD
:100B90006B017C01F7FE43C06DE286EF92E00E949C
:100BA00081038C0122273327A9012C193D094E0905
:100BB0005F0919A2CE0181967C019AE0892E912CC1
:100BC000A12CB12CCA01B901A50194010E94750F95
:100BD000605DF70162937F012115310541055105E3
:100BE00089F790E080E0309729F0BF0186EF92E02E
:100BF0000E94A505800F911FA1960FB6F894DEBF45
:100C00000FBECDBFDF91CF911F910F91FF90EF905D
:100C1000DF90CF90BF90AF909F908F900895AC01E0
:100C20009B0119A28E010F5D1F4F8AE0C82ED12CA7
:100C3000E12CF12CCA01B901A70196010E94750FA0
:100C4000605DF80162938F01211531054105510561
:100C500089F790E080E0309779F2BF0186EF92E06B
:100C60000E94A505C9CFBF92CF92DF92EF92FF926B
:100C70000F931F93CF93DF93EC010E89601788F5D4
:100C80001A821B821C821D8220E030E04FE753E471
:100C90006A817B818C819D810E94A40C6B017C0107
:100CA00020E030E0A9010E94D80E20E030E040E0D2
:100CB0005FE387FD60C0C701B6010E94630D0E941B
:100CC0007B0E8B01E880F98061E08E2D0E9452023C
:100CD0000115110509F054C060E08E2D0E94060236
:100CE0007CC0BF886B15F0F510E070E0601B710BE5
:100CF000072E000C880B990B0E94450C6B017C01A0
:100D00006B2D70E0601B710B072E000C880B990B8C
:100D10000E94450C9B01AC01C701B6010E94CF0D9A
:100D20002AE939E949E95EE30E94620D20E030E0FA
:100D300040EC50E40E94A40C90580E94490E20E020
:100D400030E040E85FE30E94630D9B01AC0160E08E
:100D500070E080E89FE30E94CF0D6A837B838C83E1
:100D60009D8392CF80E090E0A0E8BFE38A839B83DD
:100D7000AC83BD8389CFC701B6010E94620D9FCFAE
:100D80000F3F110511F461E0A8CFF701FF27E453ED
:100D9000FF4FE491E33009F45EC048F4E130C9F05C
:100DA000E23009F453C0003811056CF795CFE730F5
:100DB00009F45BC0E83009F460C0E430A1F7809129
:100DC000800080628093800010938B0000938A00E3
:100DD00004C084B5806884BD07BD0E94A802798BD9
:100DE000688B4C895D892A893B89FA01E21BF30BE8
:100DF000AF01460F571F5D8B4C8B7B8B6A8B2E850B
:100E00003F8542175307C0F0CA01821B930B9D8B8D
:100E10008C8B4C855D8528E532E0429FC001439F65
:100E2000900D529F900D11246A857B850E94610F61
:100E3000798768871D861C86DF91CF911F910F915E
:100E4000FF90EF90DF90CF90BF90089584B58062BF
:100E500084BD08BDC2CF80918000806880938000EF
:100E60001093890000938800B8CF8091B00080680B
:100E70008093B0000093B300B0CF8091B000806247
:100E80008093B0000093B400A8CF1F920F920FB6CA
:100E90000F9211242F933F934F935F936F937F9300
:100EA0008F939F93AF93BF93EF93FF938BE192E068
:100EB0000E947701FF91EF91BF91AF919F918F9128
:100EC0007F916F915F914F913F912F910F900FBE46
:100ED0000F901F9018951F920F920FB60F9211242A
:100EE0002F938F939F93EF93FF93E0912B02F091B9
:100EF0002C028081E0913102F091320282FD1BC010
:100F00009081809134028F5F8F7320913502821718
:100F100041F0E0913402F0E0E55EFD4F958F809363
:100F20003402FF91EF919F918F912F910F900FBEFF
:100F30000F901F9018958081F4CF1F920F920FB6DB
:100F40000F9211242F933F938F939F93AF93BF934F
:100F50008091C8019091C901A091CA01B091CB01C3
:100F60003091C70123E0230F2D3758F50196A11DBD
:100F7000B11D2093C7018093C8019093C901A0932C
:100F8000CA01B093CB018091CC019091CD01A09189
:100F9000CE01B091CF010196A11DB11D8093CC016E
:100FA0009093CD01A093CE01B093CF01BF91AF91AB
:100FB0009F918F913F912F910F900FBE0F901F9097
:100FC000189526E8230F0296A11DB11DD2CF1F92BE
:100FD0000F920FB60F9211242F933F934F935F936D
:100FE0006F937F938F939F93AF93BF93EF93FF93F1
:100FF000E0910201F09103010995FF91EF91BF91FA
:10100000AF919F918F917F916F915F914F913F91A0
:101010002F910F900FBE0F901F9018951F920F9257
:101020000FB60F9211242F933F934F935F936F93BB
:101030007F938F939F93AF93BF93EF93FF93E09131
:101040000001F09101010995FF91EF91BF91AF91DE
:101050009F918F917F916F915F914F913F912F91D0
:101060000F900FBE0F901F9018951F920F920FB602
:101070000F9211242F933F934F935F936F937F931E
:101080008F939F93AF93BF93EF93FF938091B9009A
:10109000887F803609F44AC0F0F5883209F4A7C089
:1010A00018F5803109F49BC0B8F4882309F4F9C01D
:1010B000883009F494C0FF91EF91BF91AF919F9157
:1010C0008F917F916F915F914F913F912F910F90F1
:1010D0000FBE0F901F901895883109F488C0803298
:1010E00051F78093F40114C0803409F49DC040F49A
:1010F0008033B9F38833F9F68093F40185ECB0C0FE
:10110000803509F485C0883509F496C0883499F68D
:101110000E94B502D0CF883909F48CC038F58837E1
:1011200029F050F4883611F0803729F683E0809357
:10113000F6011092C60157C0883809F47BC0803987
:1011400019F0803809F0B7CF8091C601803208F0DD
:1011500071C0E091C60181E08E0F8093C60180913D
:10116000BB00F0E0EA55FE4F80833DC0803B39F084
:10117000E0F4803A09F479C0883A09F09CCF84E021
:101180008093F6011092A3011092A201E091A001B8
:10119000F091A10109958091A20181110FC081E018
:1011A0008093A2011092800109C0803C09F4A6CF6F
:1011B000883C09F4A3CF883B09F07DCFE091A301DF
:1011C00081E08E0F8093A301F0E0E058FE4F808114
:1011D0008093BB009091A3018091A20129C08091CE
:1011E000D1018093BB0085EC8093BC0064CF9091CB
:1011F000F3018091F201981758F5E091F30181E035
:101200008E0F8093F301F0E0EE52FE4F8081E9CF24
:10121000E091F30181E08E0F8093F3018091BB0098
:10122000F0E0EE52FE4F80839091F3018091F20145
:101230009817C8F285E8D8CFE091F30181E08E0FCE
:101240008093F3018091BB00F0E0EE52FE4F80836B
:101250008091F50181115CCF81E08093D00184EA17
:101260008093BC001092F60126CF85EC8093BC00E1
:101270001092F6018091C601803230F4E091C601EF
:10128000F0E0EA55FE4F10826091C60170E0E091F7
:10129000A401F091A50186EA91E009951092C6019A
:1012A0000ACF1092F40134CFAF92BF92CF92DF9267
:1012B000EF92FF920F931F93CF93DF93EBE1F2E056
:1012C0001382128288EE93E0A0E0B0E084839583DD
:1012D000A683B78320E131E03183208325EC30E021
:1012E0003587248724EC30E03787268720EC30E0F0
:1012F000318B208B21EC30E0338B228B22EC30E0E1
:10130000358B248B26EC30E0378B268B118E128E9A
:10131000138E148EE8EBF2E013821282848395839D
:10132000A683B78382E291E091838083C4ECD2E00C
:10133000188219821C821D821E821F821B861A86B9
:1013400002E010E01D870C871F861E861B8A1A8A02
:101350001D8A1C8A1F8A1E8A8AEFA82EB12CB98A80
:10136000A88A0E94A8027B8B6A8B7D8B6C8B198765
:10137000088794E0C92ED12CDD86CC8628E2E22EA7
:10138000E88E30E5F32EF98E89E090E09B838A8326
:101390001C8E1D8E1E8E1F8E1BA21AA21DA30CA3B7
:1013A0001FA21EA21BA61AA61DA61CA61FA61EA62D
:1013B000B9A6A8A60E94A8027BA76AA77DA76CA7CA
:1013C00083E090E099A388A3DDA2CCA2E8AAF9AAC1
:1013D0008AE090E09B8F8A8F1DAA1CAA84E391E08B
:1013E0009BAB8AAB109206038FEF8093050310929C
:1013F00004031092070387E28DAF1EAE1FAE1CAE32
:101400001BAE84E08093080382E08093090381E0AF
:1014100080930A0380E180930B0380E280930C03A6
:1014200080E480930D0380E880930E0350E040E059
:1014300063E086EF92E00E946D0301E113E0F801A2
:1014400011821082C3E1D3E0198218821092160330
:101450001092150384EF91E09093100380930F0393
:101460000E94A802F80171836083798368831092D7
:101470001703109218031092190386EF92E09093CD
:101480001D0380931C031092210310922503DF910A
:10149000CF911F910F91FF90EF90DF90CF90BF9071
:1014A000AF900895789484B5826084BD84B58160DE
:1014B00084BD85B5826085BD85B5816085BD80911F
:1014C0006E00816080936E00109281008091810097
:1014D000826080938100809181008160809381008F
:1014E000809180008160809380008091B100846051
:1014F0008093B1008091B00081608093B0008091B2
:101500007A00846080937A0080917A008260809370
:101510007A0080917A00816080937A0080917A00CD
:10152000806880937A001092C100E0912B02F091C4
:101530002C0282E08083E0912702F0912802108241
:10154000E0912902F0912A028FEC808310923302FD
:10155000E0912F02F091300286E08083E0912D022D
:10156000F0912E02808180618083E0912D02F091C4
:101570002E02808188608083E0912D02F0912E02FE
:10158000808180688083E0912D02F0912E0280811D
:101590008F7D808361E08091C6020E94520261E0EB
:1015A0008091DE020E94520220E042E060E186EF7C
:1015B00092E00E9429056FEF86EF92E00E941005ED
:1015C00062E082E00E9452028BE995E09093010173
:1015D0008093000180916900836080936900E89A9C
:1015E00062E083E00E94520283E995E09093030158
:1015F00080930201809169008C6080936900E99A70
:1016000080E0E82E80E0F82EDD24D3948BE192E098
:101610000E945701892B09F451C08BE192E00E948E
:10162000570118161906D4F580911903811136C097
:101630008BE192E00E9435018C3379F7CAE1D3E067
:101640000E94A802609323027093240280932502D3
:10165000909326028BE192E00E94350197FF08C12A
:101660000E94A802009123021091240220912502D9
:1016700030912602601B710B820B930B00911F02AD
:1016800010912002209121023091220260177107EF
:1016900082079307F8F2D0921903BFCF90911A03F3
:1016A00080911B03983409F0DEC0833509F0DBC05C
:1016B00064E471E08BE192E00E94A505809119033A
:1016C000882351F1909117039093C40280911803DD
:1016D0008093C502992371F0E091210321E02E0F40
:1016E00020932103F0E0E25EFC4F9083233010F062
:1016F00010922103882371F0E091250391E09E0F61
:1017000090932503F0E0E25EFC4F8483933010F069
:1017100010922503109219036091C40286EC92E0A6
:101720000E9433066091C5028EED92E00E9433065E
:10173000C091E602D091E702C090C5020091CE02AE
:101740001091CF02B090C4020E94A80270931203BD
:1017500060931103409115035091160320911303D8
:1017600030911403FA01E21BF30BAF01460F571F30
:10177000509316034093150370931403609313035F
:1017800020910F03309110034217530708F45FC0F4
:10179000CA01821B930B909316038093150380E07C
:1017A0000E94940369E471E086EF92E00E94A5052F
:1017B0006B2D70E090E080E00E94B4056FED86EF45
:1017C00092E00E9481036EE471E086EF92E00E9455
:1017D000A505B801110F880B990B0E94B40561E5AE
:1017E00071E086EF92E00E94A50565E571E086EF65
:1017F00092E00E94A50581E00E94940369E571E0F2
:1018000086EF92E00E94A5056C2D70E090E080E0EC
:101810000E94B4056FED86EF92E00E9481036EE4B2
:1018200071E086EF92E00E94A505BE01DD0F880BF6
:10183000990B0E94B40561E571E086EF92E00E9489
:10184000A50565E571E086EF92E00E94A505E1142B
:10185000F10409F4DBCE0E946301882309F4D6CE9B
:101860000E940000D3CE909317038093180326CFD5
:101870008E33910509F40FCF899383E0CD31D807DA
:1018800009F0DECE08CFE89409C097FB3EF49095AE
:101890008095709561957F4F8F4F9F4F9923A9F049
:1018A000F92F96E9BB279395F695879577956795D8
:1018B000B795F111F8CFFAF4BB0F11F460FF1BC01C
:1018C0006F5F7F4F8F4F9F4F16C0882311F096E9AF
:1018D00011C0772321F09EE8872F762F05C066235D
:1018E00071F096E8862F70E060E02AF09A95660F16
:1018F000771F881FDAF7880F9695879597F90895CF
:10190000990F0008550FAA0BE0E8FEEF1616170610
:10191000E807F907C0F012161306E407F50798F078
:10192000621B730B840B950B39F40A2661F0232B91
:10193000242B252B21F408950A2609F4A140A6950D
:101940008FEF811D811D08950E94B70C0C94280D06
:101950000E941A0D38F00E94210D20F0952311F0FD
:101960000C94110D0C94170D11240C945C0D0E9415
:10197000390D70F3959FC1F3950F50E0551F629F8D
:10198000F001729FBB27F00DB11D639FAA27F00DD8
:10199000B11DAA1F649F6627B00DA11D661F829FFF
:1019A0002227B00DA11D621F739FB00DA11D621FE4
:1019B000839FA00D611D221F749F3327A00D611D01
:1019C000231F849F600D211D822F762F6A2F1124E3
:1019D0009F5750409AF0F1F088234AF0EE0FFF1F16
:1019E000BB1F661F771F881F91505040A9F79E3F6D
:1019F000510580F00C94110D0C945C0D5F3FE4F3E5
:101A0000983ED4F3869577956795B795F795E795C2
:101A10009F5FC1F7FE2B880F911D9695879597F9CB
:101A2000089597F99F6780E870E060E008959FEF60
:101A300080EC089500240A94161617061806090665
:101A4000089500240A941216130614060506089534
:101A5000092E0394000C11F4882352F0BB0F40F4BC
:101A6000BF2B11F460FF04C06F5F7F4F8F4F9F4FFC
:101A7000089557FD9058440F551F59F05F3F71F07E
:101A80004795880F97FB991F61F09F3F79F08795E5
:101A90000895121613061406551FF2CF4695F1DF6E
:101AA00008C0161617061806991FF1CF86957105FE
:101AB000610508940895E894BB2766277727CB0132
:101AC00097F908955058BB27AA270E947A0D0C94C5
:101AD000280D0E941A0D38F00E94210D20F039F4D3
:101AE0009F3F19F426F40C94170D0EF4E095E7FBD4
:101AF0000C94110DE92F0E94390D58F3BA176207A3
:101B000073078407950720F079F4A6F50C945B0D14
:101B10000EF4E0950B2EBA2FA02D0B01B901900108
:101B20000C01CA01A0011124FF27591B99F0593F4C
:101B300050F4503E68F11A16F040A22F232F342F94
:101B40004427585FF3CF469537952795A795F040E2
:101B50005395C9F77EF41F16BA0B620B730B840BF7
:101B6000BAF09150A1F0FF0FBB1F661F771F881FAF
:101B7000C2F70EC0BA0F621F731F841F48F4879507
:101B800077956795B795F7959E3F08F0B0CF9395F9
:101B9000880F08F09927EE0F9795879508950E9472
:101BA000E30D0C94280D0E94210D58F00E941A0D8F
:101BB00040F029F45F3F29F00C94110D51110C9461
:101BC0005C0D0C94170D0E94390D68F39923B1F345
:101BD000552391F3951B550BBB27AA276217730753
:101BE000840738F09F5F5F4F220F331F441FAA1FE7
:101BF000A9F335D00E2E3AF0E0E832D091505040A3
:101C0000E695001CCAF72BD0FE2F29D0660F771F50
:101C1000881FBB1F261737074807AB07B0E809F036
:101C2000BB0B802DBF01FF2793585F4F3AF09E3FBB
:101C3000510578F00C94110D0C945C0D5F3FE4F3AA
:101C4000983ED4F3869577956795B795F7959F5FFE
:101C5000C9F7880F911D9695879597F90895E1E04A
:101C6000660F771F881FBB1F621773078407BA07A9
:101C700020F0621B730B840BBA0BEE1F88F7E09504
:101C8000089529F416F00C94110D0C945B0D0C942E
:101C9000170D0E94410DA8F39638A0F707F80F9290
:101CA000E8942BE33AEA48EB5FE70E94BA0C0F9204
:101CB0000F920F924DB75EB70F920E941F0FE8E68A
:101CC000F0E00E94B10E4F915F91EF91FF91E59589
:101CD000EE1FFF1F49F0FE57E0684427EE0F441F38
:101CE000FA95E1F74195550B0E94E90E0F9007FE1A
:101CF0000C94DD0E08950E94820E6894B1110C942C
:101D00005C0D08950E94410D88F09F5798F0B92FFF
:101D10009927B751B0F0E1F0660F771F881F991F20
:101D20001AF0BA95C9F714C0B13091F00E945B0D5A
:101D3000B1E008950C945B0D672F782F8827B85F6A
:101D400039F0B93FCCF3869577956795B395D9F778
:101D50003EF490958095709561957F4F8F4F9F4F82
:101D60000895DF93CF931F930F93FF92EF92DF922B
:101D70007B018C01689406C0DA2EEF010E94B70C3B
:101D8000FE01E894A5912591359145915591A6F3D1
:101D9000EF010E947A0DFE019701A801DA9469F71C
:101DA000DF90EF90FF900F911F91CF91DF910895F9
:101DB0000E94800C08F48FEF08959B01AC0160E055
:101DC00070E080E89FE30C94CF0D0C94110D0C94FF
:101DD000530F0E94410DD8F39923C9F3940F511D5D
:101DE000A3F39150504094F059F0882332F0660FDD
:101DF000771F881F91505040C1F79E3F51052CF727
:101E0000880F911D9695879597F908955F3FACF0DF
:101E1000983E9CF0BB27869577956795B79508F413
:101E2000B1609395C1F7BB0F58F711F460FFE8CF8D
:101E30006F5F7F4F8F4F9F4FE3CF0C945C0DFA0184
:101E4000DC01AA0FBB1F9B01AC01BF5728F422275E
:101E500033274427507820C0B75190F4AB2F00248B
:101E6000469537952795011CA395D2F3002071F074
:101E7000220F331F441FB395DAF30ED00C94620D7A
:101E800061307105A0E88A07B94630F49B01AC01C6
:101E90006627772788279078309621F02083318332
:101EA0004283538308959F3F31F0915020F48795EA
:101EB00077956795B795880F911D9695879597F9B2
:101EC0000895AA1BBB1B51E107C0AA1FBB1FA61781
:101ED000B70710F0A61BB70B881F991F5A95A9F7D3
:101EE00080959095BC01CD010895A1E21A2EAA1B00
:101EF000BB1BFD010DC0AA1FBB1FEE1FFF1FA217BA
:101F0000B307E407F50720F0A21BB30BE40BF50BB6
:101F1000661F771F881F991F1A9469F7609570953F
:101F2000809590959B01AC01BD01CF010895EE0F06
:101F3000FF1F0590F491E02D099481E090E0F89462
:081F40000C94A20FF894FFCFEE
:101F4800B402B402004014540040105000000000D5
:101F58009901F9002601E601570135014901000000
:101F680000003E0311039704F8000A03F702E80291
:101F7800000000008103F9009704960429056D0309
:101F88001005F1043C41433E004350553A004320BC
:0E1F98000052504D00202020004750553A00C6
:00000001FF
