:100000000C9471000C9400080C94D9070C9499007E
:100010000C9499000C9499000C9499000C949900FC
:100020000C9499000C9499000C9499000C949900EC
:100030000C9499000C9499000C9499000C949900DC
:100040000C948F070C9499000C945D070C9437075F
:100050000C9499000C9499000C9499000C949900BC
:100060000C9427080C94990007634236B79BD8A7D5
:100070001A39685618AEBAAB558C1D3CB7CC5763CD
:10008000BD6DEDFD753EF6177231BF000000803F7B
:1000900000000000240027002A00000000002500C6
:1000A00028002B00040404040404040402020202D5
:1000B000020203030303030301020408102040802B
:1000C00001020408102001020408102000000008AA
:1000D000000201000003040700000000000000000F
:1000E0005F0911241FBECFEFD8E0DEBFCDBF23E0F4
:1000F000AEE5B1E001C01D92A232B207E1F711E016
:10010000A0E0B1E0ECE2FFE102C005900D92AE3557
:10011000B107D9F710E0C1E7D0E004C02197FE0194
:100120000E94890FC037D107C9F70E942C0A0C948E
:10013000940F0C94000020911A0281E0213208F003
:1001400044C08091F6018111FCCF8091190292E0A8
:100150009093F60191E09093F5019FEF9093F40155
:100160001092F3012093F201A9EFB1E0E2EDF1E08A
:1001700090E0291331C01092D1019091D101880FE4
:10018000892B8093D1018091D001813049F5109263
:10019000D0018091D1018093BB008091BC0083FD90
:1001A000F8CF85EC8093BC008091F6018230E1F3BA
:1001B0008091F4018F3FB1F08091F4018032A1F081
:1001C0008091F401803391F084E01092F801109254
:1001D0001A021092F70108953D9131939F5FC9CFA4
:1001E00085EEE0CF80E0F1CF82E0EFCF83E0EDCF8E
:1001F0000895AF92BF92CF92DF92EF92FF920F934A
:100200001F93CF93DF936C017B018B01040F151FAC
:10021000EB015E01AE18BF08C017D10759F0699114
:10022000D601ED91FC910190F081E02DC601099578
:10023000892B79F7C501DF91CF911F910F91FF9025
:10024000EF90DF90CF90BF90AF900895FC01538D59
:10025000448D252F30E0842F90E0821B930B5417A0
:1002600010F0CF96089501970895FC01918D828D2D
:10027000981761F0A28DAE0FBF2FB11D5D968C91C6
:10028000928D9F5F9F73928F90E008958FEF9FEF05
:100290000895FC01918D828D981731F0828DE80FC1
:1002A000F11D858D90E008958FEF9FEF0895FC017B
:1002B000918D228D892F90E0805C9F4F821B910948
:1002C0008F73992708958BE192E00E94570121E0F6
:1002D000892B09F420E0822F089580E090E0892B9B
:1002E00029F00E94630181110C9400000895FC0123
:1002F000A48DA80FB92FB11DA35ABF4F2C91848D87
:1003000090E001968F739927848FA689B7892C93E3
:10031000A089B1898C91837080648C93938D848D36
:10032000981306C00288F389E02D80818F7D808339
:100330000895EF92FF920F931F93CF93DF93EC01F9
:1003400081E0888F9B8D8C8D98131AC0E889F9897C
:10035000808185FF15C09FB7F894EE89FF8960837F
:10036000E889F98980818370806480839FBF81E000
:1003700090E0DF91CF911F910F91FF90EF90089542
:10038000F62E0B8D10E00F5F1F4F0F731127E02E1D
:100390008C8D8E110CC00FB607FCFACFE889F98955
:1003A000808185FFF5CFCE010E947701F1CFEB8DE3
:1003B000EC0FFD2FF11DE35AFF4FF0829FB7F89429
:1003C0000B8FEA89FB8980818062CFCFCF93DF9347
:1003D000EC01888D8823B9F0AA89BB89E889F9895D
:1003E0008C9185FD03C0808186FD0DC00FB607FC92
:1003F000F7CF8C9185FFF2CF808185FFEDCFCE01C5
:100400000E947701E9CFDF91CF91089590E0FC0140
:10041000E453FF4F2491FC01E854FF4F3491FC0159
:10042000EC55FF4FE491EE23C9F0222339F023303D
:1004300001F1A8F4213019F1223029F1F0E0EE0F9A
:10044000FF1FE656FF4FA591B4918FB7F894EC913A
:10045000611126C030953E233C938FBF089527300D
:10046000A9F02830C9F0243049F7809180008F7DB1
:1004700003C0809180008F7780938000DFCF84B5A8
:100480008F7784BDDBCF84B58F7DFBCF8091B000AB
:100490008F778093B000D2CF8091B0008F7DF9CF5D
:1004A0003E2BDACFCF93DF9390E0FC01E854FF4F6F
:1004B00024918C559F4FFC0184918823D1F090E0CA
:1004C000880F991FFC01E057FF4FA591B491FC01E3
:1004D000E656FF4FC591D491623071F49FB7F894FE
:1004E0003C91822F809583238C93E8812E2B288347
:1004F0009FBFDF91CF9108958FB7F894EC912E2B89
:100500002C938FBFF6CF3FB7F8948091C80190919C
:10051000C901A091CA01B091CB0126B5A89B05C025
:100520002F3F19F00196A11DB11D3FBFBA2FA92F72
:10053000982F8827BC01CD01620F711D811D911D6F
:1005400042E0660F771F881F991F4A95D1F70895DB
:10055000089585ED8093BC008091BC0084FDFCCFA4
:100560001092F60108952091A201260F3327331F20
:1005700021323105ECF42091F601FC0190E080E09D
:10058000243069F082E00895A091A2012191AC018C
:1005900040585E4FA40FB52FB11D2C9301968617BE
:1005A00098F38091A201680F6093A20180E0089502
:1005B00081E0089508950895E0917F0180917E0182
:1005C000E81730F4F0E0E25AFE4F808190E00895A1
:1005D0008FEF9FEF089590917F0180917E012FEF23
:1005E0003FEF981748F4E92FF0E0E25AFE4F2081E0
:1005F00030E09F5F90937F01C901089580917E0153
:1006000090917F01891B990B0895CF92DF92EF9211
:10061000FF920F931F93CF93DF937C01CB018A014D
:100620002091F701222389F0EB016B01C40ED51E46
:10063000CC15DD0569F06991D701ED91FC91019030
:10064000F081E02DC7010995F3CF642F0E94B3021A
:10065000C801DF91CF911F910F91FF90EF90DF9034
:10066000CF900895CF93DF931F92CDB7DEB7698304
:100670002091F7012223F9F020911A02203258F03C
:1006800021E030E0FC013383228390E080E00F9092
:10069000DF91CF9108958091F801E82FF0E0E750C5
:1006A000FE4F998190838F5F8093F80180931A02A7
:1006B00081E090E0ECCF61E0CE0101960E94B302B0
:1006C000F7CF21E001C0220F6A95EAF7DC011C9602
:1006D0002C931C971A965C934E931997ED91FC916D
:1006E0000484F585E02D60E00994DC01ED91FC9136
:1006F0000684F785E02D41E0099581E090E00895BA
:10070000DC01ED91FC910684F785E02D40E0099431
:10071000CF93DF93CDB7DEB728970FB6F894DEBF3F
:100720000FBECDBF409104015091050160910601BB
:10073000709107014D835E836F8378874091080134
:100740005091090160910A0170910B0149835A830C
:100750006B837C832091FD02821710F08FEF820F54
:1007600090E03091FE028C0F9D1FFC01303181F42E
:10077000243071F46181606886EF92E028960FB6AC
:10078000F894DEBF0FBECDBFDF91CF910C948003F4
:100790006581F1CF8F929F92AF92BF92CF92DF92FD
:1007A000EF92FF920F931F93CF93DF93EC014230B0
:1007B00018F08C8188608C834F836887222329F00E
:1007C000413019F48C8184608C830E9483024B0138
:1007D0005C0184E6C82ED12CE12CF12C0E9483020E
:1007E000681979098A099B09683E7340810591055A
:1007F000A8F321E0C21AD108E108F10888EE880EBA
:1008000083E0981EA11CB11CC114D104E104F104C1
:1008100029F76C8164FD64C0E881F9810684F7855D
:10082000E02D42E063E0CE0109958BE496E4019768
:10083000F1F7E881F9810684F785E02D42E063E075
:10084000CE01099503E512E0C8010197F1F7E881AF
:10085000F9810684F785E02D42E063E0CE01099539
:10086000C8010197F1F7E881F9810684F785E02D49
:1008700042E062E0CE010995C8010197F1F76C8171
:100880006062CE010E9480038BEE90E00197F1F749
:1008900084E08D836CE0CE010E94800361E0CE0194
:1008A0000E9480038BE39FE10197F1F782E08E8342
:1008B00066E0CE010E948003E881F9810484F58519
:1008C000E02D6FEFCE01DF91CF911F910F91FF903F
:1008D000EF90DF90CF90BF90AF909F908F90099452
:1008E0006062CE010E9480038BE496E40197F1F7E9
:1008F0006C816062CE010E94800303E512E0C801B2
:100900000197F1F76C816062CE010E948003B4CF41
:1009100008950895089590E080E00895FC012381F2
:100920002223E1F08181682B6083828191E09093A2
:10093000F701809319021092F80110921A0288EBC5
:1009400092E00E9432030E949B00282F30E081E059
:1009500090E0232B11F090E080E0089530E020E05B
:10096000F6CFEF92FF920F931F93CF938C01FC0170
:1009700084E0C0E0262F30E060FF02C09589C92BDB
:10098000B90175956795815031968111F3CF41304A
:1009900011F4F8014489F8016585C62BC42B780150
:1009A000FEE0EF0EF11CF80162896C2BC7010E947A
:1009B0008E04F801628960956C23C701CF911F9165
:1009C0000F91FF90EF900C948E040F931F93CF9391
:1009D000DF93062F0F70423041F440E0602FDF912B
:1009E000CF911F910F910C94B104142FEC0170E082
:1009F00084E0759567958A95E1F7CE010E94B10470
:100A0000412F602FCE01EBCFFC0184858823A1F01C
:100A1000218532852115310521F4611107C0158624
:100A200006C021303105D9F76111F9CF8587658579
:100A3000CF010E960C948E040895EF92FF920F93BF
:100A40001F93CF93DF93EC01062FF42EE22E8B85BC
:100A5000888B10927F0110927E011092F801109203
:100A60001A021092F60111E01093F5011092D001D4
:100A700061E082E10E94060261E083E10E940602D9
:100A80008091B9008E7F8093B9008091B9008D7FED
:100A90008093B90088E48093B80085E48093BC001B
:100AA0008AED92E09093A1018093A0018BED92E0FA
:100AB0009093A5018093A40188891093F7018093F6
:100AC00019021092F80110921A020E949B008111E3
:100AD0001CC0198B88EB92E00E94EB028E878989FB
:100AE000882339F01F861C8260E0CE010E960E949A
:100AF0008E042E2D4F2D602FCE01DF91CF911F91AF
:100B00000F91FF90EF900C94CA03198AE8CFE4ECA0
:100B1000F2E08685978501969787868708950E94DB
:100B20008F0FFB0101900020E9F73197AF01461BC1
:100B3000570BDC01ED91FC910280F381E02D0994CB
:100B40008F929F92AF92BF92CF92DF92EF92FF92DD
:100B50000F931F93CF93DF93CDB7DEB7A1970FB657
:100B6000F894DEBF0FBECDBF6B017C01F7FE43C022
:100B70006DE286EF92E00E9475038C0122273327F5
:100B8000A9012C193D094E095F0919A2CE018196D0
:100B90007C019AE0892E912CA12CB12CCA01B901BB
:100BA000A50194010E94670F605DF70162937F01C8
:100BB000211531054105510589F790E080E0309716
:100BC00029F0BF0186EF92E00E949105800F911FEE
:100BD000A1960FB6F894DEBF0FBECDBFDF91CF91C7
:100BE0001F910F91FF90EF90DF90CF90BF90AF904B
:100BF0009F908F900895AC019B0119A28E010F5D0B
:100C00001F4F8AE0C82ED12CE12CF12CCA01B9016A
:100C1000A70196010E94670F605DF80162938F0142
:100C2000211531054105510589F790E080E03097A5
:100C300079F2BF0186EF92E00E949105C9CFBF9281
:100C4000CF92DF92EF92FF920F931F93CF93DF9398
:100C5000EC010E89601788F51A821B821C821D82A6
:100C600020E030E04FE753E46A817B818C819D81F5
:100C70000E94960C6B017C0120E030E0A9010E94EB
:100C8000CA0E20E030E040E05FE387FD60C0C701AE
:100C9000B6010E94550D0E946D0E8B01E880F9800F
:100CA00061E08E2D0E9452020115110509F054C019
:100CB00060E08E2D0E9406027CC0BF886B15F0F5A7
:100CC00010E070E0601B710B072E000C880B990B75
:100CD0000E94370C6B017C016B2D70E0601B710B67
:100CE000072E000C880B990B0E94370C9B01AC015E
:100CF000C701B6010E94C10D2AE939E949E95EE35D
:100D00000E94540D20E030E040EC50E40E94960C2C
:100D100090580E943B0E20E030E040E85FE30E94E4
:100D2000550D9B01AC0160E070E080E89FE30E94FC
:100D3000C10D6A837B838C839D8392CF80E090E09A
:100D4000A0E8BFE38A839B83AC83BD8389CFC701BF
:100D5000B6010E94540D9FCF0F3F110511F461E0C1
:100D6000A8CFF701FF27E453FF4FE491E33009F4E4
:100D700064C048F4E130C9F0E23009F459C00038E9
:100D800011056CF795CFE73009F461C0E83009F43C
:100D900066C0E430A1F7809180008062809380007B
:100DA00010938B0000938A0004C084B5806884BDD2
:100DB00007BD8FB7F8944091CC015091CD0160915F
:100DC000CE017091CF018FBF598B488B8C899D8943
:100DD0002A893B89821B930B840F951F9D8B8C8BDB
:100DE0005B8B4A8B2E853F8582179307B8F0821B59
:100DF000930B9D8B8C8B4C855D8528E532E0429F63
:100E0000C001439F900D529F900D11246A857B85F0
:100E10000E94530F798768871D861C86DF91CF91CA
:100E20001F910F91FF90EF90DF90CF90BF900895AA
:100E300084B5806284BD08BDBCCF8091800080688D
:100E4000809380001093890000938800B2CF809136
:100E5000B00080688093B0000093B300AACF809167
:100E6000B00080628093B0000093B400A2CF1F92C4
:100E70000F920FB60F9211242F933F934F935F93CE
:100E80006F937F938F939F93AF93BF93EF93FF9352
:100E90008BE192E00E947701FF91EF91BF91AF91BA
:100EA0009F918F917F916F915F914F913F912F9182
:100EB0000F900FBE0F901F9018951F920F920FB6B4
:100EC0000F9211242F938F939F93EF93FF93E091B1
:100ED0002B02F0912C028081E0913102F0913202DC
:100EE00082FD1BC09081809134028F5F8F732091AF
:100EF0003502821741F0E0913402F0E0E55EFD4FEB
:100F0000958F80933402FF91EF919F918F912F9154
:100F10000F900FBE0F901F9018958081F4CF1F92F5
:100F20000F920FB60F9211242F933F938F939F939D
:100F3000AF93BF938091CC019091CD01A091CE0150
:100F4000B091CF013091C70123E0230F2D3758F521
:100F50000196A11DB11D2093C7018093CC019093F0
:100F6000CD01A093CE01B093CF018091C8019091A3
:100F7000C901A091CA01B091CB010196A11DB11D7B
:100F80008093C8019093C901A093CA01B093CB018B
:100F9000BF91AF919F918F913F912F910F900FBE75
:100FA0000F901F90189526E8230F0296A11DB11DE2
:100FB000D2CF1F920F920FB60F9211242F933F930F
:100FC0004F935F936F937F938F939F93AF93BF9351
:100FD000EF93FF93E0910201F09103010995FF91D6
:100FE000EF91BF91AF919F918F917F916F915F91A1
:100FF0004F913F912F910F900FBE0F901F9018951A
:101000001F920F920FB60F9211242F933F934F937D
:101010005F936F937F938F939F93AF93BF93EF9360
:10102000FF93E0910001F09101010995FF91EF918B
:10103000BF91AF919F918F917F916F915F914F91F0
:101040003F912F910F900FBE0F901F9018951F92F8
:101050000F920FB60F9211242F933F934F935F93EC
:101060006F937F938F939F93AF93BF93EF93FF9370
:101070008091B900887F803609F44AC0F0F5883243
:1010800009F4A7C018F5803109F49BC0B8F488238F
:1010900009F4F9C0883009F494C0FF91EF91BF9131
:1010A000AF919F918F917F916F915F914F913F9100
:1010B0002F910F900FBE0F901F901895883109F453
:1010C00088C0803251F78093F40114C0803409F451
:1010D0009DC040F48033B9F38833F9F68093F4016E
:1010E00085ECB0C0803509F485C0883509F496C018
:1010F000883499F60E94A902D0CF883909F48CC0AF
:1011000038F5883729F050F4883611F0803729F601
:1011100083E08093F6011092C60157C0883809F425
:101120007BC0803919F0803809F0B7CF8091C601B3
:10113000803208F071C0E091C60181E08E0F80938B
:10114000C6018091BB00F0E0EA55FE4F80833DC0B0
:10115000803B39F0E0F4803A09F479C0883A09F02C
:101160009CCF84E08093F6011092A3011092A2011B
:10117000E091A001F091A10109958091A201811156
:101180000FC081E08093A2011092800109C0803CD1
:1011900009F4A6CF883C09F4A3CF883B09F07DCFA2
:1011A000E091A30181E08E0F8093A301F0E0E0586D
:1011B000FE4F80818093BB009091A3018091A2019A
:1011C00029C08091D1018093BB0085EC8093BC0045
:1011D00064CF9091F3018091F201981758F5E09156
:1011E000F30181E08E0F8093F301F0E0EE52FE4FA9
:1011F0008081E9CFE091F30181E08E0F8093F301CC
:101200008091BB00F0E0EE52FE4F80839091F3019D
:101210008091F2019817C8F285E8D8CFE091F301E8
:1012200081E08E0F8093F3018091BB00F0E0EE52DD
:10123000FE4F80838091F50181115CCF81E0809326
:10124000D00184EA8093BC001092F60126CF85EC91
:101250008093BC001092F6018091C601803230F478
:10126000E091C601F0E0EA55FE4F10826091C601A0
:1012700070E0E091A401F091A50186EA91E0099562
:101280001092C6010ACF1092F40134CFFC011382F0
:1012900012821582148217821682718360832FB79F
:1012A000F8948091CC019091CD01A091CE01B091A4
:1012B000CF012FBF93838283958384830895CF9238
:1012C000DF92EF92FF920F931F93CF93DF93EBE1A7
:1012D000F2E01382128288EE93E0A0E0B0E0848313
:1012E0009583A683B78320E131E03183208325EC09
:1012F00030E03587248724EC30E03787268720ECE0
:1013000030E0318B208B21EC30E0338B228B22ECD0
:1013100030E0358B248B26EC30E0378B268B118E1A
:10132000128E138E148EE8EBF2E013821282848305
:101330009583A683B78382E291E091838083C4EC96
:10134000D2E0188219821C821D821E821F821B8697
:101350001A8602E010E01D870C871F861E866AEF42
:1013600070E084ED92E00E9446091987088784E0C6
:10137000C82ED12CDD86CC8698E2E92EE88E20E5B9
:10138000F22EF98E89E090E09B838A831C8E1D8E5D
:101390001E8E1F8E1BA21AA21DA30CA31FA21EA28B
:1013A0006AEF70E08CEE92E00E94460983E090E0E4
:1013B00099A388A3DDA2CCA2E8AAF9AA8AE090E0CA
:1013C0009B8F8A8F1DAA1CAA84E391E09BAB8AABFA
:1013D000109206038FEF809305031092040310927E
:1013E000070387E28DAF1EAE1FAE1CAE1BAE84E0BE
:1013F0008093080382E08093090381E080930A03CD
:1014000080E180930B0380E280930C0380E480935F
:101410000D0380E880930E0350E040E063E086EF28
:1014200092E00E94610364EF71E08FE093E00E941C
:101430004609109217031092180310921903109284
:101440001E0310922103DF91CF911F910F91FF9006
:10145000EF90DF90CF900895789484B5826084BD3A
:1014600084B5816084BD85B5826085BD85B58160A8
:1014700085BD80916E00816080936E001092810026
:1014800080918100826080938100809181008160E1
:1014900080938100809180008160809380008091A2
:1014A000B10084608093B1008091B000816080932E
:1014B000B00080917A00846080937A0080917A00F5
:1014C000826080937A0080917A00816080937A00B4
:1014D00080917A00806880937A001092C100E09138
:1014E0002B02F0912C0282E08083E0912702F091A0
:1014F00028021082E0912902F0912A028FEC808369
:1015000010923302E0912F02F091300286E0808346
:10151000E0912D02F0912E02808180618083E09124
:101520002D02F0912E02808188608083E0912D024F
:10153000F0912E02808180688083E0912D02F091ED
:101540002E0280818F7D808361E08091C6020E949F
:10155000520261E08091DE020E94520220E042E0ED
:1015600060E186EF92E00E941D056FEF86EF92E04A
:101570000E94040562E082E00E94520287E895E042
:1015800090930101809300018091690083608093B2
:101590006900E89ACDE1D3E000E010E0FF24F39485
:1015A0008BE192E00E945701892B09F466C08BE120
:1015B00092E00E945701181619060CF04EC0809157
:1015C000190381114AC08BE192E00E9435018C33EE
:1015D00071F78AE1C82E83E0D82E2FB7F894809156
:1015E000CC019091CD01A091CE01B091CF012FBF40
:1015F0008093230290932402A0932502B0932602A5
:101600008BE192E00E94350197FF23C12FB7F89438
:101610008091CC019091CD01A091CE01B091CF01EC
:101620002FBF4091230250912402609125027091B6
:101630002602841B950BA60BB70B40911F025091FD
:101640002002609121027091220284179507A6075B
:10165000B707B0F2F0921903AACF90911A038091C4
:101660001B03983409F0F0C0833509F0EDC064E441
:1016700071E08BE192E00E9491058091190388232B
:10168000B1F19091180320911703222371F0E0919A
:101690001E0381E08E0F80931E03F0E0E45EFC4F9A
:1016A0002083823010F010921E03992371F0E09194
:1016B000210381E08E0F80932103F0E0E45EFC4F74
:1016C0009383823010F01092210380911D0390913A
:1016D0001C03890F86958093C4028091200390910A
:1016E0001F03890F86958093C5021092190360919C
:1016F000C40286EC92E00E941F066091C5028EED46
:1017000092E00E941F06C090E602D090E702E090AF
:10171000C502A090CE02B090CF029090C4028FB7C5
:10172000F8944091CC015091CD016091CE0170911F
:10173000CF018FBF50931203409311038091150383
:1017400090911603840F951F209113033091140379
:10175000821B930B909316038093150350931403ED
:101760004093130320910F033091100382179307C6
:1017700008F45EC0821B930B9093160380931503AD
:1017800080E00E94880369E471E086EF92E00E94A5
:101790009105692D70E090E080E00E94A0056FED5A
:1017A00086EF92E00E9475036EE471E086EF92E0AE
:1017B0000E949105B501BB0C880B990B0E94A005F6
:1017C00061E571E086EF92E00E94910565E571E0C8
:1017D00086EF92E00E94910581E00E94880369E50E
:1017E00071E086EF92E00E9491056E2D70E090E02E
:1017F00080E00E94A0056FED86EF92E00E947503E5
:101800006EE471E086EF92E00E949105B601DD0C76
:10181000880B990B0E94A00561E571E086EF92E0CC
:101820000E94910565E571E086EF92E00E949105C6
:101830000115110509F4B4CE0E946301882309F44F
:10184000AFCE0E940000ACCE909317038093180394
:1018500014CF8E33910509F4FDCEF60181936F010B
:10186000CE17DF0709F0B9CEF5CEE89409C097FB93
:101870003EF490958095709561957F4F8F4F9F4F67
:101880009923A9F0F92F96E9BB279395F6958795AB
:1018900077956795B795F111F8CFFAF4BB0F11F46E
:1018A00060FF1BC06F5F7F4F8F4F9F4F16C0882315
:1018B00011F096E911C0772321F09EE8872F762F4B
:1018C00005C0662371F096E8862F70E060E02AF08C
:1018D0009A95660F771F881FDAF7880F9695879578
:1018E00097F90895990F0008550FAA0BE0E8FEEF4D
:1018F00016161706E807F907C0F012161306E407D4
:10190000F50798F0621B730B840B950B39F40A26CC
:1019100061F0232B242B252B21F408950A2609F4AA
:10192000A140A6958FEF811D811D08950E94A90CED
:101930000C941A0D0E940C0D38F00E94130D20F02B
:10194000952311F00C94030D0C94090D11240C94A3
:101950004E0D0E942B0D70F3959FC1F3950F50E033
:10196000551F629FF001729FBB27F00DB11D639F51
:10197000AA27F00DB11DAA1F649F6627B00DA11DF7
:10198000661F829F2227B00DA11D621F739FB00D9D
:10199000A11D621F839FA00D611D221F749F33270D
:1019A000A00D611D231F849F600D211D822F762FA6
:1019B0006A2F11249F5750409AF0F1F088234AF083
:1019C000EE0FFF1FBB1F661F771F881F91505040EF
:1019D000A9F79E3F510580F00C94030D0C944E0D19
:1019E0005F3FE4F3983ED4F3869577956795B79576
:1019F000F795E7959F5FC1F7FE2B880F911D969590
:101A0000879597F9089597F99F6780E870E060E0FF
:101A100008959FEF80EC089500240A941616170687
:101A200018060906089500240A94121613061406CF
:101A300005060895092E0394000C11F4882352F032
:101A4000BB0F40F4BF2B11F460FF04C06F5F7F4FEA
:101A50008F4F9F4F089557FD9058440F551F59F0D1
:101A60005F3F71F04795880F97FB991F61F09F3F8B
:101A700079F087950895121613061406551FF2CFB4
:101A80004695F1DF08C0161617061806991FF1CF04
:101A900086957105610508940895E894BB2766272B
:101AA0007727CB0197F908955058BB27AA270E94A2
:101AB0006C0D0C941A0D0E940C0D38F00E94130D41
:101AC00020F039F49F3F19F426F40C94090D0EF41C
:101AD000E095E7FB0C94030DE92F0E942B0D58F3C2
:101AE000BA17620773078407950720F079F4A6F503
:101AF0000C944D0D0EF4E0950B2EBA2FA02D0B017A
:101B0000B90190010C01CA01A0011124FF27591B42
:101B100099F0593F50F4503E68F11A16F040A22F48
:101B2000232F342F4427585FF3CF469537952795B9
:101B3000A795F0405395C9F77EF41F16BA0B620BB8
:101B4000730B840BBAF09150A1F0FF0FBB1F661FFF
:101B5000771F881FC2F70EC0BA0F621F731F841F42
:101B600048F4879577956795B795F7959E3F08F068
:101B7000B0CF9395880F08F09927EE0F979587952A
:101B800008950E94D50D0C941A0D0E94130D58F063
:101B90000E940C0D40F029F45F3F29F00C94030DD6
:101BA00051110C944E0D0C94090D0E942B0D68F3ED
:101BB0009923B1F3552391F3951B550BBB27AA2706
:101BC00062177307840738F09F5F5F4F220F331F40
:101BD000441FAA1FA9F335D00E2E3AF0E0E832D008
:101BE00091505040E695001CCAF72BD0FE2F29D00B
:101BF000660F771F881FBB1F261737074807AB07DD
:101C0000B0E809F0BB0B802DBF01FF2793585F4F51
:101C10003AF09E3F510578F00C94030D0C944E0D54
:101C20005F3FE4F3983ED4F3869577956795B79533
:101C3000F7959F5FC9F7880F911D9695879597F93E
:101C40000895E1E0660F771F881FBB1F62177307B7
:101C50008407BA0720F0621B730B840BBA0BEE1FCC
:101C600088F7E095089529F416F00C94030D0C9470
:101C70004D0D0C94090D0E94330DA8F39638A0F772
:101C800007F80F92E8942BE33AEA48EB5FE70E94EB
:101C9000AC0C0F920F920F924DB75EB70F920E944D
:101CA000110FE8E6F0E00E94A30E4F915F91EF91D3
:101CB000FF91E595EE1FFF1F49F0FE57E0684427AE
:101CC000EE0F441FFA95E1F74195550B0E94DB0E8C
:101CD0000F9007FE0C94CF0E08950E94740E689426
:101CE000B1110C944E0D08950E94330D88F09F574A
:101CF00098F0B92F9927B751B0F0E1F0660F771F30
:101D0000881F991F1AF0BA95C9F714C0B13091F025
:101D10000E944D0DB1E008950C944D0D672F782F62
:101D20008827B85F39F0B93FCCF3869577956795EA
:101D3000B395D9F73EF490958095709561957F4F56
:101D40008F4F9F4F0895DF93CF931F930F93FF9271
:101D5000EF92DF927B018C01689406C0DA2EEF01CE
:101D60000E94A90CFE01E894A59125913591459119
:101D70005591A6F3EF010E946C0DFE019701A80199
:101D8000DA9469F7DF90EF90FF900F911F91CF9158
:101D9000DF9108950E94720C08F48FEF08959B0163
:101DA000AC0160E070E080E89FE30C94C10D0C94FE
:101DB000030D0C94450F0E94330DD8F39923C9F3FA
:101DC000940F511DA3F39150504094F059F0882383
:101DD00032F0660F771F881F91505040C1F79E3F29
:101DE00051052CF7880F911D9695879597F90895C1
:101DF0005F3FACF0983E9CF0BB2786957795679542
:101E0000B79508F4B1609395C1F7BB0F58F711F47B
:101E100060FFE8CF6F5F7F4F8F4F9F4FE3CF0C94F2
:101E20004E0DFA01DC01AA0FBB1F9B01AC01BF578D
:101E300028F4222733274427507820C0B75190F444
:101E4000AB2F0024469537952795011CA395D2F317
:101E5000002071F0220F331F441FB395DAF30ED028
:101E60000C94540D61307105A0E88A07B94630F42E
:101E70009B01AC016627772788279078309621F060
:101E8000208331834283538308959F3F31F09150E3
:101E900020F4879577956795B795880F911D96954E
:101EA000879597F90895AA1BBB1B51E107C0AA1F8C
:101EB000BB1FA617B70710F0A61BB70B881F991FEB
:101EC0005A95A9F780959095BC01CD010895A1E29E
:101ED0001A2EAA1BBB1BFD010DC0AA1FBB1FEE1FA4
:101EE000FF1FA217B307E407F50720F0A21BB30BEF
:101EF000E40BF50B661F771F881F991F1A9469F76B
:101F000060957095809590959B01AC01BD01CF01C6
:101F10000895EE0FFF1F0590F491E02D099481E0E4
:0C1F200090E0F8940C94940FF894FFCF1C
:101F2C00A802A80200401454004010500000000009
:101F3C009901F9002601E60157013501490100001C
:101F4C000000320305038B04F800FE02EB02DC02F6
:101F5C00000000007503F9008B048A041D05610361
:101F6C000405E5043C41433E004350553A004320F0
:0E1F7C000052504D00202020004750553A00E2
:107800000C94343C0C94513C0C94513C0C94513CE1
:107810000C94513C0C94513C0C94513C0C94513CB4
:107820000C94513C0C94513C0C94513C0C94513CA4
:107830000C94513C0C94513C0C94513C0C94513C94
:107840000C94513C0C94513C0C94513C0C94513C84
:107850000C94513C0C94513C0C94513C0C94513C74
:107860000C94513C0C94513C11241FBECFEFD8E036
:10787000DEBFCDBF11E0A0E0B1E0ECE9FFE702C060
:1078800005900D92A230B107D9F712E0A2E0B1E065
:1078900001C01D92AD30B107E1F70E942D3D0C945F
:1078A000CC3F0C94003C982F959595959595959582
:1078B000905D8F708A307CF0282F295A8091C0000B
:1078C00085FFFCCF9093C6008091C00085FFFCCF60
:1078D0002093C6000895282F205DF0CF982F809127
:1078E000C00085FFFCCF9093C6000895EF92FF92F1
:1078F0000F931F93EE24FF2487018091C00087FD22
:1079000017C00894E11CF11C011D111D81E4E8164B
:1079100082E4F8068FE0080780E0180770F3E09132
:107920000401F091050109958091C00087FFE9CF1E
:107930008091C6001F910F91FF90EF9008950E94D3
:10794000763C982F8091C00085FFFCCF9093C600B5
:1079500091362CF490330CF09053892F089597555D
:10796000892F08951F930E949F3C182F0E949F3CCF
:107970001295107F810F1F9108951F93182F882350
:1079800021F00E94763C1150E1F71F9108951F935A
:10799000182F0E94763C803249F0809103018F5F5E
:1079A000809303018530C1F01F9108958091C0003C
:1079B00085FFFCCF84E18093C6008091C00085FFE5
:1079C000FCCF1093C6008091C00085FFFCCF80E102
:1079D0008093C6001F910895E0910401F091050184
:1079E00009951F9108950E94763C803241F0809164
:1079F00003018F5F80930301853081F008958091AA
:107A0000C00085FFFCCF84E18093C6008091C00058
:107A100085FFFCCF80E18093C6000895E0910401CA
:107A2000F09105010995089540E951E08823A1F0FE
:107A30002D9A28EE33E0FA013197F1F721503040CA
:107A4000D1F72D9828EE33E0FA013197F1F7215064
:107A50003040D1F7815061F708953F924F925F9285
:107A60006F927F928F929F92AF92BF92CF92DF924E
:107A7000EF92FF920F931F93CF93DF93000080E16B
:107A80008093C4001092C50088E18093C10086E015
:107A90008093C2005098589A259A81E00E94143D24
:107AA00024E1F22E9EE1E92E85E9D82E0FE0C02ECA
:107AB00010E1B12EAA24A394B1E49B2EA6E58A2E50
:107AC000F2E57F2EE0E26E2E79E4572E63E5462E36
:107AD00050E5352E0E94763C8033B1F18133B9F107
:107AE000803409F46FC0813409F476C0823409F41B
:107AF00085C0853409F488C0803531F1823521F1A3
:107B0000813511F1853509F485C0863509F48DC0BC
:107B1000843609F496C0843709F403C1853709F423
:107B200072C1863709F466C0809103018F5F80932C
:107B30000301853079F6E0910401F0910501099582
:107B40000E94763C803351F60E94F33CC3CF0E94E2
:107B5000763C803249F78091C00085FFFCCFF092DF
:107B6000C6008091C00085FFFCCF9092C600809136
:107B7000C00085FFFCCF8092C6008091C00085FFC9
:107B8000FCCF7092C6008091C00085FFFCCF609250
:107B9000C6008091C00085FFFCCF5092C600809146
:107BA000C00085FFFCCF4092C6008091C00085FFD9
:107BB000FCCF3092C6008091C00085FFFCCFB09210
:107BC000C60088CF0E94763C863808F4BDCF0E945C
:107BD000763C0E94F33C7ECF0E94763C803809F4CC
:107BE0009CC0813809F40BC1823809F43CC1883942
:107BF00009F48FC080E00E94C73C6CCF84E10E94F2
:107C0000BD3C0E94F33C66CF85E00E94BD3C0E94D3
:107C1000F33C60CF0E94763C809306010E94763C44
:107C2000809307010E94F33C55CF0E94763C80333D
:107C300009F41DC183E00E94BD3C80E00E94C73C66
:107C400049CF0E94763C809309020E94763C809343
:107C5000080280910C028E7F80930C020E94763C79
:107C6000853409F415C18091080290910902892B8D
:107C700089F000E010E00E94763CF801E85FFE4FDA
:107C800080830F5F1F4F80910802909109020817AF
:107C9000190788F30E94763C803209F045CF809125
:107CA0000C0280FF01C16091060170910701660F0F
:107CB000771F7093070160930601A0910802B091AD
:107CC00009021097C9F0E8E0F1E09B01AD014E0F09
:107CD0005F1FF999FECF32BD21BD819180BDFA9A17
:107CE000F99A2F5F3F4FE417F50799F76A0F7B1F4B
:107CF00070930701609306018091C00085FFFCCF5F
:107D0000F092C6008091C00085FFFCCFB092C60003
:107D1000E1CE83E00E94C73CDDCE82E00E94C73CFA
:107D2000D9CE0E94763C809309020E94763C8093D3
:107D300008028091060190910701880F991F909386
:107D40000701809306010E94763C853409F4A6C0A1
:107D500080910C028E7F80930C020E94763C8032D0
:107D600009F0B8CE8091C00085FFFCCFF092C6002C
:107D7000609108027091090261157105B9F140E046
:107D800050E080910C02A82FA170B82FB27011C0E2
:107D9000BB2309F45CC0E0910601F0910701319624
:107DA000F0930701E09306014F5F5F4F46175707B7
:107DB000E8F4AA2369F3F999FECF209106013091E6
:107DC000070132BD21BDF89A90B58091C00085FFB2
:107DD000FCCF9093C6002F5F3F4F30930701209355
:107DE00006014F5F5F4F4617570718F38091C00099
:107DF00085FDE5CE8091C00085FFF8CFE0CE81E023
:107E00000E94C73C67CE0E94763C803209F08CCE3F
:107E10008091C00085FFFCCFF092C6008091C00029
:107E200085FFFCCFE092C6008091C00085FFFCCFAB
:107E3000D092C6008091C00085FFFCCFC092C600E2
:107E40008091C00085FFFCCFB092C60043CEE09188
:107E50000601F091070194918091C00085FFFCCF4D
:107E60009093C6009CCF80E10E94C73C33CE0E9415
:107E7000763C0E94763C182F0E94763C112309F430
:107E800083C0113009F484C08FE00E94C73C22CE29
:107E900080910C02816080930C02E5CE80910C02EF
:107EA000816080930C0259CF809107018823880F4D
:107EB000880B8A2180930B02809106019091070123
:107EC000880F991F90930701809306018091080203
:107ED00080FF09C080910802909109020196909359
:107EE000090280930802F894F999FECF1127E091D6
:107EF0000601F0910701C8E0D1E08091080290915D
:107F00000902103091F40091570001700130D9F34B
:107F100003E000935700E89500915700017001308D
:107F2000D9F301E100935700E89509901990009169
:107F3000570001700130D9F301E000935700E89534
:107F40001395103498F011270091570001700130FB
:107F5000D9F305E000935700E895009157000170B0
:107F60000130D9F301E100935700E895329602976A
:107F700009F0C7CF103011F00296E5CF112480919F
:107F8000C00085FFB9CEBCCE8EE10E94C73CA2CD19
:0C7F900085E90E94C73C9ECDF894FFCF0D
:027F9C00800063
:040000030000780081
:00000001FF
