:100000000C9471000C940B080C94E4070C94990068
:100010000C9499000C9499000C9499000C949900FC
:100020000C9499000C9499000C9499000C949900EC
:100030000C9499000C9499000C9499000C949900DC
:100040000C949A070C9499000C9468070C9442073E
:100050000C9499000C9499000C9499000C949900BC
:100060000C9432080C94990007634236B79BD8A7CA
:100070001A39685618AEBAAB558C1D3CB7CC5763CD
:10008000BD6DEDFD753EF6177231BF000000803F7B
:1000900000000000240027002A00000000002500C6
:1000A00028002B00040404040404040402020202D5
:1000B000020203030303030301020408102040802B
:1000C00001020408102001020408102000000008AA
:1000D000000201000003040700000000000000000F
:1000E000510911241FBECFEFD8E0DEBFCDBF23E002
:1000F000AEE5B1E001C01D92AA32B207E1F711E00E
:10010000A0E0B1E0E2E7FFE102C005900D92AE355C
:10011000B107D9F710E0C1E7D0E004C02197FE0194
:100120000E94AC0FC037D107C9F70E94610A0C9436
:10013000B70F0C94000020911A0281E0213208F0E0
:1001400044C08091F6018111FCCF8091190292E0A8
:100150009093F60191E09093F5019FEF9093F40155
:100160001092F3012093F201A9EFB1E0E2EDF1E08A
:1001700090E0291331C01092D1019091D101880FE4
:10018000892B8093D1018091D001813049F5109263
:10019000D0018091D1018093BB008091BC0083FD90
:1001A000F8CF85EC8093BC008091F6018230E1F3BA
:1001B0008091F4018F3FB1F08091F4018032A1F081
:1001C0008091F401803391F084E01092F801109254
:1001D0001A021092F70108953D9131939F5FC9CFA4
:1001E00085EEE0CF80E0F1CF82E0EFCF83E0EDCF8E
:1001F0000895AF92BF92CF92DF92EF92FF920F934A
:100200001F93CF93DF936C017B018B01040F151FAC
:10021000EB015E01AE18BF08C017D10759F0699114
:10022000D601ED91FC910190F081E02DC601099578
:10023000892B79F7C501DF91CF911F910F91FF9025
:10024000EF90DF90CF90BF90AF900895FC01538D59
:10025000448D252F30E0842F90E0821B930B5417A0
:1002600010F0CF96089501970895FC01918D828D2D
:10027000981761F0A28DAE0FBF2FB11D5D968C91C6
:10028000928D9F5F9F73928F90E008958FEF9FEF05
:100290000895FC01918D828D981731F0828DE80FC1
:1002A000F11D858D90E008958FEF9FEF0895FC017B
:1002B000918D228D892F90E0805C9F4F821B910948
:1002C0008F73992708958BE192E00E94570121E0F6
:1002D000892B09F420E0822F089580E090E0892B9B
:1002E00029F00E94630181110C9400000895FC0123
:1002F000A48DA80FB92FB11DA35ABF4F2C91848D87
:1003000090E001968F739927848FA689B7892C93E3
:10031000A089B1898C91837080648C93938D848D36
:10032000981306C00288F389E02D80818F7D808339
:100330000895EF92FF920F931F93CF93DF93EC01F9
:1003400081E0888F9B8D8C8D98131AC0E889F9897C
:10035000808185FF15C09FB7F894EE89FF8960837F
:10036000E889F98980818370806480839FBF81E000
:1003700090E0DF91CF911F910F91FF90EF90089542
:10038000F62E0B8D10E00F5F1F4F0F731127E02E1D
:100390008C8D8E110CC00FB607FCFACFE889F98955
:1003A000808185FFF5CFCE010E947701F1CFEB8DE3
:1003B000EC0FFD2FF11DE35AFF4FF0829FB7F89429
:1003C0000B8FEA89FB8980818062CFCFCF93DF9347
:1003D000EC01888D8823B9F0AA89BB89E889F9895D
:1003E0008C9185FD03C0808186FD0DC00FB607FC92
:1003F000F7CF8C9185FFF2CF808185FFEDCFCE01C5
:100400000E947701E9CFDF91CF91089590E0FC0140
:10041000E453FF4F2491FC01E854FF4F3491FC0159
:10042000EC55FF4FE491EE23C9F0222339F023303D
:1004300001F1A8F4213019F1223029F1F0E0EE0F9A
:10044000FF1FE656FF4FA591B4918FB7F894EC913A
:10045000611126C030953E233C938FBF089527300D
:10046000A9F02830C9F0243049F7809180008F7DB1
:1004700003C0809180008F7780938000DFCF84B5A8
:100480008F7784BDDBCF84B58F7DFBCF8091B000AB
:100490008F778093B000D2CF8091B0008F7DF9CF5D
:1004A0003E2BDACFCF93DF9390E0FC01E854FF4F6F
:1004B00024918C559F4FFC0184918823D1F090E0CA
:1004C000880F991FFC01E057FF4FA591B491FC01E3
:1004D000E656FF4FC591D491623071F49FB7F894FE
:1004E0003C91822F809583238C93E8812E2B288347
:1004F0009FBFDF91CF9108958FB7F894EC912E2B89
:100500002C938FBFF6CF3FB7F8948091CC01909198
:10051000CD01A091CE01B091CF0126B5A89B05C019
:100520002F3F19F00196A11DB11D3FBFBA2FA92F72
:10053000982F8827BC01CD01620F711D811D911D6F
:1005400042E0660F771F881F991F4A95D1F70895DB
:100550002FB7F8946091C8017091C9018091CA01C8
:100560009091CB012FBF0895089585ED8093BC0035
:100570008091BC0084FDFCCF1092F601089520917B
:10058000A201260F3327331F21323105ECF42091CD
:10059000F601FC0190E080E0243069F082E00895EB
:1005A000A091A2012191AC0140585E4FA40FB52F3C
:1005B000B11D2C930196861798F38091A201680FC4
:1005C0006093A20180E0089581E008950895089560
:1005D000E0917F0180917E01E81730F4F0E0E25A6B
:1005E000FE4F808190E008958FEF9FEF08959091E6
:1005F0007F0180917E012FEF3FEF981748F4E92F9C
:10060000F0E0E25AFE4F208130E09F5F90937F013F
:10061000C901089580917E0190917F01891B990BFA
:100620000895CF92DF92EF92FF920F931F93CF9393
:10063000DF937C01CB018A012091F701222389F00D
:10064000EB016B01C40ED51ECC15DD0569F0699177
:10065000D701ED91FC910190F081E02DC701099542
:10066000F3CF642F0E94BF02C801DF91CF911F9189
:100670000F91FF90EF90DF90CF900895CF93DF938D
:100680001F92CDB7DEB769832091F7012223F9F0DD
:1006900020911A02203258F021E030E0FC0133832F
:1006A000228390E080E00F90DF91CF9108958091B8
:1006B000F801E82FF0E0E750FE4F998190838F5FBB
:1006C0008093F80180931A0281E090E0ECCF61E022
:1006D000CE0101960E94BF02F7CF21E001C0220F98
:1006E0006A95EAF7DC011C962C931C971A965C938A
:1006F0004E931997ED91FC910484F585E02D60E00F
:100700000994DC01ED91FC910684F785E02D41E030
:10071000099581E090E00895DC01ED91FC9106845B
:10072000F785E02D40E00994CF93DF93CDB7DEB796
:1007300028970FB6F894DEBF0FBECDBF40910401DD
:100740005091050160910601709107014D835E8310
:100750006F837887409108015091090160910A01E7
:1007600070910B0149835A836B837C832091FF0234
:10077000821710F08FEF820F90E0309100038C0F02
:100780009D1FFC01303181F4243071F46181606877
:1007900088EF92E028960FB6F894DEBF0FBECDBF6B
:1007A000DF91CF910C948C036581F1CF8F929F9252
:1007B000AF92BF92CF92DF92EF92FF920F931F936F
:1007C000CF93DF93EC01423018F08C8188608C83EA
:1007D0004F836887222329F0413019F48C8184608B
:1007E0008C830E9483024B015C0184E6C82ED12CCD
:1007F000E12CF12C0E948302681979098A099B096E
:10080000683E734081059105A8F321E0C21AD10822
:10081000E108F10888EE880E83E0981EA11CB11C47
:10082000C114D104E104F10429F76C8164FD64C0B2
:10083000E881F9810684F785E02D42E063E0CE018E
:1008400009958BE496E40197F1F7E881F981068434
:10085000F785E02D42E063E0CE01099503E512E063
:10086000C8010197F1F7E881F9810684F785E02D49
:1008700042E063E0CE010995C8010197F1F7E881F4
:10088000F9810684F785E02D42E062E0CE0109950A
:10089000C8010197F1F76C816062CE010E948C0360
:1008A0008BEE90E00197F1F784E08D836CE0CE0150
:1008B0000E948C0361E0CE010E948C038BE39FE1D8
:1008C0000197F1F782E08E8366E0CE010E948C03EF
:1008D000E881F9810484F585E02D6FEFCE01DF9189
:1008E000CF911F910F91FF90EF90DF90CF90BF902D
:1008F000AF909F908F9009946062CE010E948C030C
:100900008BE496E40197F1F76C816062CE010E945E
:100910008C0303E512E0C8010197F1F76C81606276
:10092000CE010E948C03B4CF08950895089590E0FD
:1009300080E00895FC0123812223E1F08181682B6E
:100940006083828191E09093F70180931902109265
:10095000F80110921A0288EB92E00E943E030E9476
:100960009B00282F30E081E090E0232B11F090E0F5
:1009700080E0089530E020E0F6CFEF92FF920F93F1
:100980001F93CF938C01FC0184E0C0E0262F30E060
:1009900060FF02C09589C92BB90175956795815093
:1009A00031968111F3CF413011F4F8014489F801F7
:1009B0006585C62BC42B7801FEE0EF0EF11CF80113
:1009C00062896C2BC7010E949A04F80162896095C4
:1009D0006C23C701CF911F910F91FF90EF900C9462
:1009E0009A040F931F93CF93DF93062F0F7042301B
:1009F00041F440E0602FDF91CF911F910F910C9453
:100A0000BD04142FEC0170E084E0759567958A951C
:100A1000E1F7CE010E94BD04412F602FCE01EBCF44
:100A2000FC0184858823A1F02185328521153105BB
:100A300021F4611107C0158606C021303105D9F7B0
:100A40006111F9CF85876585CF010E960C949A04C4
:100A50000895EF92FF920F931F93CF93DF93EC01D2
:100A6000062FF42EE22E8B85888B10927F01109238
:100A70007E011092F80110921A021092F60111E014
:100A80001093F5011092D00161E082E10E9406020C
:100A900061E083E10E9406028091B9008E7F80931D
:100AA000B9008091B9008D7F8093B90088E480936C
:100AB000B80085E48093BC0086EE92E09093A1019B
:100AC0008093A00187EE92E09093A5018093A4010A
:100AD00088891093F701809319021092F8011092FF
:100AE0001A020E949B0081111CC0198B88EB92E0B6
:100AF0000E94F7028E878989882339F01F861C821D
:100B000060E0CE010E960E949A042E2D4F2D602F8C
:100B1000CE01DF91CF911F910F91FF90EF900C9438
:100B2000D603198AE8CFE4ECF2E084859585019636
:100B30009587848708950E94B20FFB0101900020E1
:100B4000E9F73197AF01461B570BDC01ED91FC91A2
:100B50000280F381E02D09948F929F92AF92BF9211
:100B6000CF92DF92EF92FF920F931F93CF93DF9379
:100B7000CDB7DEB7A1970FB6F894DEBF0FBECDBFDD
:100B80006B017C01F7FE43C06DE288EF92E00E94AA
:100B900081038C0122273327A9012C193D094E0915
:100BA0005F0919A2CE0181967C019AE0892E912CD1
:100BB000A12CB12CCA01B901A50194010E948A0F90
:100BC000605DF70162937F012115310541055105F3
:100BD00089F790E080E0309729F0BF0188EF92E03C
:100BE0000E949D05800F911FA1960FB6F894DEBF5D
:100BF0000FBECDBFDF91CF911F910F91FF90EF906E
:100C0000DF90CF90BF90AF909F908F900895AC01F0
:100C10009B0119A28E010F5D1F4F8AE0C82ED12CB7
:100C2000E12CF12CCA01B901A70196010E948A0F9B
:100C3000605DF80162938F01211531054105510571
:100C400089F790E080E0309779F2BF0188EF92E079
:100C50000E949D05C9CF8F929F92AF92BF92EF9253
:100C6000FF920F931F93CF93DF93EC01EE88FF88E1
:100C70006E157F058CF51A821B821C821D8220E076
:100C800030E04FE753E46A817B818C819D810E9433
:100C9000B90C4B015C0120E030E0A9010E94ED0E8F
:100CA00020E030E040E05FE387FD5FC0C501B401B4
:100CB0000E94780D0E94900E8B01E880F98061E01F
:100CC0008E2D0E9452020115110509F053C060E0FB
:100CD0008E2D0E9406027BC0088D198D601771074A
:100CE000DCF56E197F09072E000C880B990B0E940A
:100CF0005A0C4B015C01B8016E197F09072E000CDC
:100D0000880B990B0E945A0C9B01AC01C501B401E0
:100D10000E94E40D2AE939E949E95EE30E94770D72
:100D200020E030E040EC50E40E94B90C90580E9462
:100D30005E0E20E030E040E85FE30E94780D9B010A
:100D4000AC0160E070E080E89FE30E94E40D6A83FC
:100D50007B838C839D8393CF80E090E0A0E8BFE30A
:100D60008A839B83AC83BD838ACFC501B4010E9473
:100D7000770DA0CF0F3F110511F461E0A9CFF70166
:100D8000FF27E453FF4FE491E33009F461C048F4D6
:100D9000E130C9F0E23009F456C0003811056CF7B3
:100DA00096CFE73009F45EC0E83009F463C0E43060
:100DB000A1F78091800080628093800010938B0067
:100DC00000938A0004C084B5806884BD07BD0E947A
:100DD000A802798B688B4C895D892A893B89FA0145
:100DE000E21BF30BAF01460F571F5D8B4C8B7B8BC8
:100DF0006A8B2E853F8542175307D0F0CA01821BAC
:100E0000930B9D8B8C8BF8944C855D8528E532E0A7
:100E1000429FC001439F900D529F900D11246A85FF
:100E20007B850E94760F798768871D861C8678945B
:100E3000DF91CF911F910F91FF90EF90BF90AF90F6
:100E40009F908F90089584B5806284BD08BDBFCF08
:100E500080918000806880938000109389000093C7
:100E60008800B5CF8091B00080688093B000009377
:100E7000B300ADCF8091B00080628093B00000934A
:100E8000B400A5CF1F920F920FB60F9211242F938B
:100E90003F934F935F936F937F938F939F93AF9302
:100EA000BF93EF93FF938BE192E00E947701FF9154
:100EB000EF91BF91AF919F918F917F916F915F91D2
:100EC0004F913F912F910F900FBE0F901F9018954B
:100ED0001F920F920FB60F9211242F938F939F930F
:100EE000EF93FF93E0912B02F0912C028081E0912F
:100EF0003102F091320282FD1BC090818091340258
:100F00008F5F8F7320913502821741F0E091340298
:100F1000F0E0E55EFD4F958F80933402FF91EF91F5
:100F20009F918F912F910F900FBE0F901F9018954A
:100F30008081F4CF1F920F920FB60F9211242F933E
:100F40003F938F939F93AF93BF938091C8019091EC
:100F5000C901A091CA01B091CB013091C70123E032
:100F6000230F2D3758F50196A11DB11D2093C70100
:100F70008093C8019093C901A093CA01B093CB019B
:100F80008091CC019091CD01A091CE01B091CF0183
:100F90000196A11DB11D8093CC019093CD01A0932A
:100FA000CE01B093CF01BF91AF919F918F913F91AF
:100FB0002F910F900FBE0F901F90189526E8230FCA
:100FC0000296A11DB11DD2CF1F920F920FB60F92A4
:100FD00011242F933F934F935F936F937F938F933E
:100FE0009F93AF93BF93EF93FF93E0910201F09132
:100FF00003010995FF91EF91BF91AF919F918F915F
:101000007F916F915F914F913F912F910F900FBE04
:101010000F901F9018951F920F920FB60F921124E8
:101020002F933F934F935F936F937F938F939F93F0
:10103000AF93BF93EF93FF93E0910001F091010113
:101040000995FF91EF91BF91AF919F918F917F9102
:101050006F915F914F913F912F910F900FBE0F9025
:101060001F9018951F920F920FB60F9211242F9375
:101070003F934F935F936F937F938F939F93AF9320
:10108000BF93EF93FF938091B900887F803609F476
:101090004AC0F0F5883209F4A7C018F5803109F488
:1010A0009BC0B8F4882309F4F9C0883009F494C0CF
:1010B000FF91EF91BF91AF919F918F917F916F9130
:1010C0005F914F913F912F910F900FBE0F901F9006
:1010D0001895883109F488C0803251F78093F40163
:1010E00014C0803409F49DC040F48033B9F38833D0
:1010F000F9F68093F40185ECB0C0803509F485C021
:10110000883509F496C0883499F60E94B502D0CF8C
:10111000883909F48CC038F5883729F050F48836BE
:1011200011F0803729F683E08093F6011092C60112
:1011300057C0883809F47BC0803919F0803809F02D
:10114000B7CF8091C601803208F071C0E091C6012E
:1011500081E08E0F8093C6018091BB00F0E0EA55DC
:10116000FE4F80833DC0803B39F0E0F4803A09F4C3
:1011700079C0883A09F09CCF84E08093F601109200
:10118000A3011092A201E091A001F091A1010995A3
:101190008091A20181110FC081E08093A201109281
:1011A000800109C0803C09F4A6CF883C09F4A3CF94
:1011B000883B09F07DCFE091A30181E08E0F809301
:1011C000A301F0E0E058FE4F80818093BB00909136
:1011D000A3018091A20129C08091D1018093BB001D
:1011E00085EC8093BC0064CF9091F3018091F20173
:1011F000981758F5E091F30181E08E0F8093F30189
:10120000F0E0EE52FE4F8081E9CFE091F30181E002
:101210008E0F8093F3018091BB00F0E0EE52FE4F01
:1012200080839091F3018091F2019817C8F285E8CC
:10123000D8CFE091F30181E08E0F8093F30180918C
:10124000BB00F0E0EE52FE4F80838091F5018111EA
:101250005CCF81E08093D00184EA8093BC0010923F
:10126000F60126CF85EC8093BC001092F6018091A8
:10127000C601803230F4E091C601F0E0EA55FE4F3D
:1012800010826091C60170E0E091A401F091A50187
:1012900086EA91E009951092C6010ACF1092F401F6
:1012A00034CF8F929F92AF92BF92CF92DF92EF9204
:1012B000FF920F931F93CF93DF93EBE1F2E0138242
:1012C000128288EE93E0A0E0B0E084839583A68349
:1012D000B78320E131E03183208325EC30E035878E
:1012E000248724EC30E03787268720EC30E0318BF0
:1012F000208B21EC30E0338B228B22EC30E0358BDD
:10130000248B26EC30E0378B268B118E128E138EB9
:10131000148EE8EBF2E01382128284839583A68315
:10132000B78382E291E091838083C4ECD2E01A8299
:101330001B821C821D821986188602E010E01B8722
:101340000A871D861C86198A188A1B8A1A8A1D8A92
:101350001C8A8AEF882E912C9F868E860E94A80276
:10136000798B688B7B8B6A8B1F830E8394E0A92E0D
:10137000B12CBB86AA8628E2C22ED12CDF8ACE8A67
:1013800030E5E32EF12CF98EE88E89E090E0998328
:1013900088831C8E1D8E1E8E1F8E1BA21AA21DA35B
:1013A0000CA31FA21EA21BA61AA61DA61CA61FA642
:1013B0001EA699A688A60E94A8027BA76AA77DA759
:1013C0006CA783E090E099A388A3BDA2ACA2D9AAA0
:1013D000C8AAFBAAEAAA8AE090E09B8F8A8F1FAA7C
:1013E0001EAA84E391E09DAB8CAB109208038FEFB3
:1013F00080930703109206031092090387E28FAFD0
:1014000010920403109205031EAE1DAE84E080937B
:101410000A0382E080930B0381E080930C0380E158
:1014200080930D0380E280930E0380E480930F038A
:1014300080E88093100350E040E063E088EF92E0A2
:101440000E946D0303E113E0F80111821082C5E1EF
:10145000D3E019821882109218031092170384EFB8
:1014600091E090931203809311030E94A802F80167
:10147000718360837983688388EF92E090931A0385
:101480008093190310921C0310921B0310921E03E9
:1014900010921D0310922203109221031092260332
:1014A0001092250310922703DF91CF911F910F9186
:1014B000FF90EF90DF90CF90BF90AF909F908F9074
:1014C0000895789484B5826084BD84B5816084BDBC
:1014D00085B5826085BD85B5816085BD80916E00D2
:1014E000816080936E001092810080918100826003
:1014F0008093810080918100816080938100809140
:1015000080008160809380008091B100846080932E
:10151000B1008091B00081608093B00080917A002A
:10152000846080937A0080917A00826080937A0050
:1015300080917A00816080937A0080917A0080683F
:1015400080937A001092C100E0912B02F0912C025E
:1015500082E08083E0912702F09128021082E091DE
:101560002902F0912A028FEC808310923302E091DD
:101570002F02F091300286E08083E0912D02F091FD
:101580002E02808180618083E0912D02F0912E02F5
:10159000808188608083E0912D02F0912E0280810D
:1015A00080688083E0912D02F0912E0280818F7DF2
:1015B000808361E08091C4020E94520261E08091C8
:1015C000DE020E94520220E042E060E188EF92E0F9
:1015D0000E9429056FEF88EF92E00E94100562E0FB
:1015E00082E00E94520283E995E09093010180938A
:1015F000000180916900836080936900E89AFBE2B2
:101600008F2EF3E09F2EA0E0AA2EA0E0BA2E772422
:1016100073948BE192E00E945701892B09F453C027
:101620008BE192E00E94570118161906D4F58091BB
:101630002703811136C08BE192E00E9435018C3383
:1016400079F7C8E2D3E00E94A80260932302709366
:10165000240280932502909326028BE192E00E945F
:10166000350197FF1BC10E94A8020091230210912F
:1016700024022091250230912602601B710B820BFF
:10168000930B00911F0210912002209121023091B2
:1016900022026017710782079307F8F270922703FE
:1016A000BFCF4091280320912903483409F0B4C0EA
:1016B000233509F0B1C064E471E08BE192E00E944F
:1016C0009D051092270300911B0310911C03C091EC
:1016D0001D03D0911E03B80184EC92E00E942B06FA
:1016E000BE018EED92E00E942B06E090E602F090A3
:1016F000E702C090CC02D090CD020E94A802709365
:101700001403609313034091170350911803209121
:10171000150330911603FA01E21BF30BAF01460FDC
:10172000571F509318034093170370931603609349
:10173000150320911103309112034217530708F447
:101740005FC0CA01821B930B909318038093170309
:1017500080E00E94940369E471E088EF92E00E94C7
:101760009D05B801110F880B990B0E94AC056FED18
:1017700088EF92E00E9481036EE471E088EF92E0CE
:101780000E949D05B601DD0C880B990B0E94AC05EB
:1017900061E571E088EF92E00E949D0565E571E0EA
:1017A00088EF92E00E949D0581E00E94940369E524
:1017B00071E088EF92E00E949D05BE01DD0F880B6D
:1017C000990B0E94AC056FED88EF92E00E948103B7
:1017D0006EE471E088EF92E00E949D05B701FF0C76
:1017E000880B990B0E94AC0561E571E088EF92E0EF
:1017F0000E949D0565E571E088EF92E00E949D05DD
:10180000A114B10409F405CF0E946301882309F4EF
:1018100000CF0E940000FDCE042E000C550B50930B
:101820001C0340931B038091210390912203BC0170
:101830006F5F7F4F7093220360932103880F991F7E
:10184000FC01E15EFC4F518340831616170624F419
:101850001092220310922103022E000C330B3093BE
:101860001E0320931D038091250390912603AC0154
:101870004F5F5F4F5093260340932503880F991FB6
:10188000FC01ED5DFC4F31832083141615060CF02E
:1018900018CF109226031092250313CF8E33910593
:1018A00009F4FCCE89938C169D0609F0CCCEF6CEB9
:1018B000E89409C097FB3EF49095809570956195EA
:1018C0007F4F8F4F9F4F9923A9F0F92F96E9BB27A0
:1018D0009395F695879577956795B795F111F8CF1C
:1018E000FAF4BB0F11F460FF1BC06F5F7F4F8F4F87
:1018F0009F4F16C0882311F096E911C0772321F07D
:101900009EE8872F762F05C0662371F096E8862F14
:1019100070E060E02AF09A95660F771F881FDAF76B
:10192000880F9695879597F90895990F0008550F98
:10193000AA0BE0E8FEEF16161706E807F907C0F055
:1019400012161306E407F50798F0621B730B840B5D
:10195000950B39F40A2661F0232B242B252B21F437
:1019600008950A2609F4A140A6958FEF811D811DD7
:1019700008950E94CC0C0C943D0D0E942F0D38F060
:101980000E94360D20F0952311F00C94260D0C9436
:101990002C0D11240C94710D0E944E0D70F3959F27
:1019A000C1F3950F50E0551F629FF001729FBB2756
:1019B000F00DB11D639FAA27F00DB11DAA1F649FF2
:1019C0006627B00DA11D661F829F2227B00DA11DA5
:1019D000621F739FB00DA11D621F839FA00D611D2B
:1019E000221F749F3327A00D611D231F849F600D4C
:1019F000211D822F762F6A2F11249F5750409AF075
:101A0000F1F088234AF0EE0FFF1FBB1F661F771F00
:101A1000881F91505040A9F79E3F510580F00C94CB
:101A2000260D0C94710D5F3FE4F3983ED4F3869538
:101A300077956795B795F795E7959F5FC1F7FE2B6B
:101A4000880F911D9695879597F9089597F99F6747
:101A500080E870E060E008959FEF80EC0895002436
:101A60000A941616170618060906089500240A9403
:101A700012161306140605060895092E0394000C89
:101A800011F4882352F0BB0F40F4BF2B11F460FF18
:101A900004C06F5F7F4F8F4F9F4F089557FD905841
:101AA000440F551F59F05F3F71F04795880F97FB22
:101AB000991F61F09F3F79F08795089512161306DC
:101AC0001406551FF2CF4695F1DF08C0161617060B
:101AD0001806991FF1CF8695710561050894089540
:101AE000E894BB2766277727CB0197F908955058CC
:101AF000BB27AA270E948F0D0C943D0D0E942F0D2D
:101B000038F00E94360D20F039F49F3F19F426F486
:101B10000C942C0D0EF4E095E7FB0C94260DE92FA8
:101B20000E944E0D58F3BA17620773078407950792
:101B300020F079F4A6F50C94700D0EF4E0950B2EC0
:101B4000BA2FA02D0B01B90190010C01CA01A0010F
:101B50001124FF27591B99F0593F50F4503E68F16A
:101B60001A16F040A22F232F342F4427585FF3CFAB
:101B7000469537952795A795F0405395C9F77EF47C
:101B80001F16BA0B620B730B840BBAF09150A1F0C5
:101B9000FF0FBB1F661F771F881FC2F70EC0BA0F4B
:101BA000621F731F841F48F4879577956795B795D3
:101BB000F7959E3F08F0B0CF9395880F08F09927CE
:101BC000EE0F9795879508950E94F80D0C943D0DA2
:101BD0000E94360D58F00E942F0D40F029F45F3F0F
:101BE00029F00C94260D51110C94710D0C942C0DB0
:101BF0000E944E0D68F39923B1F3552391F3951B81
:101C0000550BBB27AA2762177307840738F09F5F1D
:101C10005F4F220F331F441FAA1FA9F335D00E2E8A
:101C20003AF0E0E832D091505040E695001CCAF7F7
:101C30002BD0FE2F29D0660F771F881FBB1F2617BA
:101C400037074807AB07B0E809F0BB0B802DBF0191
:101C5000FF2793585F4F3AF09E3F510578F00C9460
:101C6000260D0C94710D5F3FE4F3983ED4F38695F6
:101C700077956795B795F7959F5FC9F7880F911D81
:101C80009695879597F90895E1E0660F771F881F6D
:101C9000BB1F621773078407BA0720F0621B730B20
:101CA000840BBA0BEE1F88F7E095089529F416F01F
:101CB0000C94260D0C94700D0C942C0D0E94560D56
:101CC000A8F39638A0F707F80F92E8942BE33AEAC6
:101CD00048EB5FE70E94CF0C0F920F920F924DB727
:101CE0005EB70F920E94340FE8E6F0E00E94C60E45
:101CF0004F915F91EF91FF91E595EE1FFF1F49F026
:101D0000FE57E0684427EE0F441FFA95E1F741952E
:101D1000550B0E94FE0E0F9007FE0C94F20E0895D4
:101D20000E94970E6894B1110C94710D08950E9451
:101D3000560D88F09F5798F0B92F9927B751B0F0FA
:101D4000E1F0660F771F881F991F1AF0BA95C9F73F
:101D500014C0B13091F00E94700DB1E008950C9460
:101D6000700D672F782F8827B85F39F0B93FCCF313
:101D7000869577956795B395D9F73EF490958095BC
:101D8000709561957F4F8F4F9F4F0895DF93CF934D
:101D90001F930F93FF92EF92DF927B018C01689467
:101DA00006C0DA2EEF010E94CC0CFE01E894A5914A
:101DB0002591359145915591A6F3EF010E948F0D24
:101DC000FE019701A801DA9469F7DF90EF90FF9088
:101DD0000F911F91CF91DF9108950E94950C08F407
:101DE0008FEF08959B01AC0160E070E080E89FE315
:101DF0000C94E40D0C94260D0C94680F0E94560D63
:101E0000D8F39923C9F3940F511DA3F39150504077
:101E100094F059F0882332F0660F771F881F915095
:101E20005040C1F79E3F51052CF7880F911D9695A4
:101E3000879597F908955F3FACF0983E9CF0BB27DB
:101E4000869577956795B79508F4B1609395C1F736
:101E5000BB0F58F711F460FFE8CF6F5F7F4F8F4FD4
:101E60009F4FE3CF0C94710DFA01DC01AA0FBB1F49
:101E70009B01AC01BF5728F4222733274427507811
:101E800020C0B75190F4AB2F002446953795279585
:101E9000011CA395D2F3002071F0220F331F441FC1
:101EA000B395DAF30ED00C94770D61307105A0E88C
:101EB0008A07B94630F49B01AC016627772788274B
:101EC0009078309621F020833183428353830895A4
:101ED0009F3F31F0915020F4879577956795B7959E
:101EE000880F911D9695879597F90895AA1BBB1B9E
:101EF00051E107C0AA1FBB1FA617B70710F0A61B0A
:101F0000B70B881F991F5A95A9F780959095BC012A
:101F1000CD010895A1E21A2EAA1BBB1BFD010DC025
:101F2000AA1FBB1FEE1FFF1FA217B307E407F50789
:101F300020F0A21BB30BE40BF50B661F771F881F65
:101F4000991F1A9469F760957095809590959B01FB
:101F5000AC01BD01CF010895EE0FFF1F0590F49174
:101F6000E02D099481E090E0F8940C94B70FF89478
:021F7000FFCFA1
:101F7200B402B402004014540040105000000000AB
:101F82009901F9002601E6015701350149010000D6
:101F920000003E0311039704F8000A03F702E80267
:101FA200000000008103F9009704960429056D03DF
:101FB2001005F1043C41433E004350553A00432092
:0E1FC2000052504D00202020004750553A009C
:107800000C94343C0C94513C0C94513C0C94513CE1
:107810000C94513C0C94513C0C94513C0C94513CB4
:107820000C94513C0C94513C0C94513C0C94513CA4
:107830000C94513C0C94513C0C94513C0C94513C94
:107840000C94513C0C94513C0C94513C0C94513C84
:107850000C94513C0C94513C0C94513C0C94513C74
:107860000C94513C0C94513C11241FBECFEFD8E036
:10787000DEBFCDBF11E0A0E0B1E0ECE9FFE702C060
:1078800005900D92A230B107D9F712E0A2E0B1E065
:1078900001C01D92AD30B107E1F70E942D3D0C945F
:1078A000CC3F0C94003C982F959595959595959582
:1078B000905D8F708A307CF0282F295A8091C0000B
:1078C00085FFFCCF9093C6008091C00085FFFCCF60
:1078D0002093C6000895282F205DF0CF982F809127
:1078E000C00085FFFCCF9093C6000895EF92FF92F1
:1078F0000F931F93EE24FF2487018091C00087FD22
:1079000017C00894E11CF11C011D111D81E4E8164B
:1079100082E4F8068FE0080780E0180770F3E09132
:107920000401F091050109958091C00087FFE9CF1E
:107930008091C6001F910F91FF90EF9008950E94D3
:10794000763C982F8091C00085FFFCCF9093C600B5
:1079500091362CF490330CF09053892F089597555D
:10796000892F08951F930E949F3C182F0E949F3CCF
:107970001295107F810F1F9108951F93182F882350
:1079800021F00E94763C1150E1F71F9108951F935A
:10799000182F0E94763C803249F0809103018F5F5E
:1079A000809303018530C1F01F9108958091C0003C
:1079B00085FFFCCF84E18093C6008091C00085FFE5
:1079C000FCCF1093C6008091C00085FFFCCF80E102
:1079D0008093C6001F910895E0910401F091050184
:1079E00009951F9108950E94763C803241F0809164
:1079F00003018F5F80930301853081F008958091AA
:107A0000C00085FFFCCF84E18093C6008091C00058
:107A100085FFFCCF80E18093C6000895E0910401CA
:107A2000F09105010995089540E951E08823A1F0FE
:107A30002D9A28EE33E0FA013197F1F721503040CA
:107A4000D1F72D9828EE33E0FA013197F1F7215064
:107A50003040D1F7815061F708953F924F925F9285
:107A60006F927F928F929F92AF92BF92CF92DF924E
:107A7000EF92FF920F931F93CF93DF93000080E16B
:107A80008093C4001092C50088E18093C10086E015
:107A90008093C2005098589A259A81E00E94143D24
:107AA00024E1F22E9EE1E92E85E9D82E0FE0C02ECA
:107AB00010E1B12EAA24A394B1E49B2EA6E58A2E50
:107AC000F2E57F2EE0E26E2E79E4572E63E5462E36
:107AD00050E5352E0E94763C8033B1F18133B9F107
:107AE000803409F46FC0813409F476C0823409F41B
:107AF00085C0853409F488C0803531F1823521F1A3
:107B0000813511F1853509F485C0863509F48DC0BC
:107B1000843609F496C0843709F403C1853709F423
:107B200072C1863709F466C0809103018F5F80932C
:107B30000301853079F6E0910401F0910501099582
:107B40000E94763C803351F60E94F33CC3CF0E94E2
:107B5000763C803249F78091C00085FFFCCFF092DF
:107B6000C6008091C00085FFFCCF9092C600809136
:107B7000C00085FFFCCF8092C6008091C00085FFC9
:107B8000FCCF7092C6008091C00085FFFCCF609250
:107B9000C6008091C00085FFFCCF5092C600809146
:107BA000C00085FFFCCF4092C6008091C00085FFD9
:107BB000FCCF3092C6008091C00085FFFCCFB09210
:107BC000C60088CF0E94763C863808F4BDCF0E945C
:107BD000763C0E94F33C7ECF0E94763C803809F4CC
:107BE0009CC0813809F40BC1823809F43CC1883942
:107BF00009F48FC080E00E94C73C6CCF84E10E94F2
:107C0000BD3C0E94F33C66CF85E00E94BD3C0E94D3
:107C1000F33C60CF0E94763C809306010E94763C44
:107C2000809307010E94F33C55CF0E94763C80333D
:107C300009F41DC183E00E94BD3C80E00E94C73C66
:107C400049CF0E94763C809309020E94763C809343
:107C5000080280910C028E7F80930C020E94763C79
:107C6000853409F415C18091080290910902892B8D
:107C700089F000E010E00E94763CF801E85FFE4FDA
:107C800080830F5F1F4F80910802909109020817AF
:107C9000190788F30E94763C803209F045CF809125
:107CA0000C0280FF01C16091060170910701660F0F
:107CB000771F7093070160930601A0910802B091AD
:107CC00009021097C9F0E8E0F1E09B01AD014E0F09
:107CD0005F1FF999FECF32BD21BD819180BDFA9A17
:107CE000F99A2F5F3F4FE417F50799F76A0F7B1F4B
:107CF00070930701609306018091C00085FFFCCF5F
:107D0000F092C6008091C00085FFFCCFB092C60003
:107D1000E1CE83E00E94C73CDDCE82E00E94C73CFA
:107D2000D9CE0E94763C809309020E94763C8093D3
:107D300008028091060190910701880F991F909386
:107D40000701809306010E94763C853409F4A6C0A1
:107D500080910C028E7F80930C020E94763C8032D0
:107D600009F0B8CE8091C00085FFFCCFF092C6002C
:107D7000609108027091090261157105B9F140E046
:107D800050E080910C02A82FA170B82FB27011C0E2
:107D9000BB2309F45CC0E0910601F0910701319624
:107DA000F0930701E09306014F5F5F4F46175707B7
:107DB000E8F4AA2369F3F999FECF209106013091E6
:107DC000070132BD21BDF89A90B58091C00085FFB2
:107DD000FCCF9093C6002F5F3F4F30930701209355
:107DE00006014F5F5F4F4617570718F38091C00099
:107DF00085FDE5CE8091C00085FFF8CFE0CE81E023
:107E00000E94C73C67CE0E94763C803209F08CCE3F
:107E10008091C00085FFFCCFF092C6008091C00029
:107E200085FFFCCFE092C6008091C00085FFFCCFAB
:107E3000D092C6008091C00085FFFCCFC092C600E2
:107E40008091C00085FFFCCFB092C60043CEE09188
:107E50000601F091070194918091C00085FFFCCF4D
:107E60009093C6009CCF80E10E94C73C33CE0E9415
:107E7000763C0E94763C182F0E94763C112309F430
:107E800083C0113009F484C08FE00E94C73C22CE29
:107E900080910C02816080930C02E5CE80910C02EF
:107EA000816080930C0259CF809107018823880F4D
:107EB000880B8A2180930B02809106019091070123
:107EC000880F991F90930701809306018091080203
:107ED00080FF09C080910802909109020196909359
:107EE000090280930802F894F999FECF1127E091D6
:107EF0000601F0910701C8E0D1E08091080290915D
:107F00000902103091F40091570001700130D9F34B
:107F100003E000935700E89500915700017001308D
:107F2000D9F301E100935700E89509901990009169
:107F3000570001700130D9F301E000935700E89534
:107F40001395103498F011270091570001700130FB
:107F5000D9F305E000935700E895009157000170B0
:107F60000130D9F301E100935700E895329602976A
:107F700009F0C7CF103011F00296E5CF112480919F
:107F8000C00085FFB9CEBCCE8EE10E94C73CA2CD19
:0C7F900085E90E94C73C9ECDF894FFCF0D
:027F9C00800063
:040000030000780081
:00000001FF
