:100000000C9471000C9405080C94DE070C94990074
:100010000C9499000C9499000C9499000C949900FC
:100020000C9499000C9499000C9499000C949900EC
:100030000C9499000C9499000C9499000C949900DC
:100040000C9494070C9499000C9462070C943C0750
:100050000C9499000C9499000C9499000C949900BC
:100060000C942C080C94990007634236B79BD8A7D0
:100070001A39685618AEBAAB558C1D3CB7CC5763CD
:10008000BD6DEDFD753EF6177231BF000000803F7B
:1000900000000000240027002A00000000002500C6
:1000A00028002B00040404040404040402020202D5
:1000B000020203030303030301020408102040802B
:1000C00001020408102001020408102000000008AA
:1000D000000201000003040700000000000000000F
:1000E000640911241FBECFEFD8E0DEBFCDBF11E001
:1000F000A0E0B1E0EAEEFEE102C005900D92AE355F
:10010000B107D9F723E0AEE5B1E001C01D92A832F6
:10011000B207E1F710E0C1E7D0E004C02197FE018B
:100120000E94680FC037D107C9F70E94430A0C9498
:10013000730F0C94000020911A0281E0213208F024
:1001400044C08091F6018111FCCF8091190292E0A8
:100150009093F60191E09093F5019FEF9093F40155
:100160001092F3012093F201A9EFB1E0E2EDF1E08A
:1001700090E0291331C01092D1019091D101880FE4
:10018000892B8093D1018091D001813049F5109263
:10019000D0018091D1018093BB008091BC0083FD90
:1001A000F8CF85EC8093BC008091F6018230E1F3BA
:1001B0008091F4018F3FB1F08091F4018032A1F081
:1001C0008091F401803391F084E01092F801109254
:1001D0001A021092F70108953D9131939F5FC9CFA4
:1001E00085EEE0CF80E0F1CF82E0EFCF83E0EDCF8E
:1001F0000895AF92BF92CF92DF92EF92FF920F934A
:100200001F93CF93DF936C017B018B01040F151FAC
:10021000EB015E01AE18BF08C017D10759F0699114
:10022000D601ED91FC910190F081E02DC601099578
:10023000892B79F7C501DF91CF911F910F91FF9025
:10024000EF90DF90CF90BF90AF900895FC01538D59
:10025000448D252F30E0842F90E0821B930B5417A0
:1002600010F0CF96089501970895FC01918D828D2D
:10027000981761F0A28DAE0FBF2FB11D5D968C91C6
:10028000928D9F5F9F73928F90E008958FEF9FEF05
:100290000895FC01918D828D981731F0828DE80FC1
:1002A000F11D858D90E008958FEF9FEF0895FC017B
:1002B000918D228D892F90E0805C9F4F821B910948
:1002C0008F73992708958BE192E00E94570121E0F6
:1002D000892B09F420E0822F089580E090E0892B9B
:1002E00029F00E94630181110C9400000895FC0123
:1002F000A48DA80FB92FB11DA35ABF4F2C91848D87
:1003000090E001968F739927848FA689B7892C93E3
:10031000A089B1898C91837080648C93938D848D36
:10032000981306C00288F389E02D80818F7D808339
:100330000895EF92FF920F931F93CF93DF93EC01F9
:1003400081E0888F9B8D8C8D98131AC0E889F9897C
:10035000808185FF15C09FB7F894EE89FF8960837F
:10036000E889F98980818370806480839FBF81E000
:1003700090E0DF91CF911F910F91FF90EF90089542
:10038000F62E0B8D10E00F5F1F4F0F731127E02E1D
:100390008C8D8E110CC00FB607FCFACFE889F98955
:1003A000808185FFF5CFCE010E947701F1CFEB8DE3
:1003B000EC0FFD2FF11DE35AFF4FF0829FB7F89429
:1003C0000B8FEA89FB8980818062CFCFCF93DF9347
:1003D000EC01888D8823B9F0AA89BB89E889F9895D
:1003E0008C9185FD03C0808186FD0DC00FB607FC92
:1003F000F7CF8C9185FFF2CF808185FFEDCFCE01C5
:100400000E947701E9CFDF91CF91089590E0FC0140
:10041000E453FF4F2491FC01E854FF4F3491FC0159
:10042000EC55FF4FE491EE23C9F0222339F023303D
:1004300001F1A8F4213019F1223029F1F0E0EE0F9A
:10044000FF1FE656FF4FA591B4918FB7F894EC913A
:10045000611126C030953E233C938FBF089527300D
:10046000A9F02830C9F0243049F7809180008F7DB1
:1004700003C0809180008F7780938000DFCF84B5A8
:100480008F7784BDDBCF84B58F7DFBCF8091B000AB
:100490008F778093B000D2CF8091B0008F7DF9CF5D
:1004A0003E2BDACFCF93DF9390E0FC01E854FF4F6F
:1004B00024918C559F4FFC0184918823D1F090E0CA
:1004C000880F991FFC01E057FF4FA591B491FC01E3
:1004D000E656FF4FC591D491623071F49FB7F894FE
:1004E0003C91822F809583238C93E8812E2B288347
:1004F0009FBFDF91CF9108958FB7F894EC912E2B89
:100500002C938FBFF6CF3FB7F8948091C80190919C
:10051000C901A091CA01B091CB0126B5A89B05C025
:100520002F3F19F00196A11DB11D3FBFBA2FA92F72
:10053000982F8827BC01CD01620F711D811D911D6F
:1005400042E0660F771F881F991F4A95D1F70895DB
:10055000089585ED8093BC008091BC0084FDFCCFA4
:100560001092F60108952091A201260F3327331F20
:1005700021323105ECF42091F601FC0190E080E09D
:10058000243069F082E00895A091A2012191AC018C
:1005900040585E4FA40FB52FB11D2C9301968617BE
:1005A00098F38091A201680F6093A20180E0089502
:1005B00081E0089508950895E0917F0180917E0182
:1005C000E81730F4F0E0E25AFE4F808190E00895A1
:1005D0008FEF9FEF089590917F0180917E012FEF23
:1005E0003FEF981748F4E92FF0E0E25AFE4F2081E0
:1005F00030E09F5F90937F01C901089580917E0153
:1006000090917F01891B990B0895CF92DF92EF9211
:10061000FF920F931F93CF93DF937C01CB018A014D
:100620002091F701222389F0EB016B01C40ED51E46
:10063000CC15DD0569F06991D701ED91FC91019030
:10064000F081E02DC7010995F3CF642F0E94B3021A
:10065000C801DF91CF911F910F91FF90EF90DF9034
:10066000CF900895CF93DF931F92CDB7DEB7698304
:100670002091F7012223F9F020911A02203258F03C
:1006800021E030E0FC013383228390E080E00F9092
:10069000DF91CF9108958091F801E82FF0E0E750C5
:1006A000FE4F998190838F5F8093F80180931A02A7
:1006B00081E090E0ECCF61E0CE0101960E94B302B0
:1006C000F7CF21E001C0220F6A95EAF7DC011C9602
:1006D0002C931C971A965C934E931997ED91FC916D
:1006E0000484F585E02D60E00994DC01ED91FC9136
:1006F0000684F785E02D41E0099581E090E00895BA
:10070000DC01ED91FC910684F785E02D40E0099431
:10071000CF93DF93CDB7DEB728970FB6F894DEBF3F
:100720000FBECDBF409104015091050160910601BB
:10073000709107014D835E836F8378874091080134
:100740005091090160910A0170910B0149835A830C
:100750006B837C832091FF02821710F08FEF820F52
:1007600090E0309100038C0F9D1FFC01303181F42B
:10077000243071F46181606888EF92E028960FB6AA
:10078000F894DEBF0FBECDBFDF91CF910C948003F4
:100790006581F1CF8F929F92AF92BF92CF92DF92FD
:1007A000EF92FF920F931F93CF93DF93EC014230B0
:1007B00018F08C8188608C834F836887222329F00E
:1007C000413019F48C8184608C830E9483024B0138
:1007D0005C0184E6C82ED12CE12CF12C0E9483020E
:1007E000681979098A099B09683E7340810591055A
:1007F000A8F321E0C21AD108E108F10888EE880EBA
:1008000083E0981EA11CB11CC114D104E104F104C1
:1008100029F76C8164FD64C0E881F9810684F7855D
:10082000E02D42E063E0CE0109958BE496E4019768
:10083000F1F7E881F9810684F785E02D42E063E075
:10084000CE01099503E512E0C8010197F1F7E881AF
:10085000F9810684F785E02D42E063E0CE01099539
:10086000C8010197F1F7E881F9810684F785E02D49
:1008700042E062E0CE010995C8010197F1F76C8171
:100880006062CE010E9480038BEE90E00197F1F749
:1008900084E08D836CE0CE010E94800361E0CE0194
:1008A0000E9480038BE39FE10197F1F782E08E8342
:1008B00066E0CE010E948003E881F9810484F58519
:1008C000E02D6FEFCE01DF91CF911F910F91FF903F
:1008D000EF90DF90CF90BF90AF909F908F90099452
:1008E0006062CE010E9480038BE496E40197F1F7E9
:1008F0006C816062CE010E94800303E512E0C801B2
:100900000197F1F76C816062CE010E948003B4CF41
:1009100008950895089590E080E00895FC012381F2
:100920002223E1F08181682B6083828191E09093A2
:10093000F701809319021092F80110921A0288EBC5
:1009400092E00E9432030E949B00282F30E081E059
:1009500090E0232B11F090E080E0089530E020E05B
:10096000F6CFEF92FF920F931F93CF938C01FC0170
:1009700084E0C0E0262F30E060FF02C09589C92BDB
:10098000B90175956795815031968111F3CF41304A
:1009900011F4F8014489F8016585C62BC42B780150
:1009A000FEE0EF0EF11CF80162896C2BC7010E947A
:1009B0008E04F801628960956C23C701CF911F9165
:1009C0000F91FF90EF900C948E040F931F93CF9391
:1009D000DF93062F0F70423041F440E0602FDF912B
:1009E000CF911F910F910C94B104142FEC0170E082
:1009F00084E0759567958A95E1F7CE010E94B10470
:100A0000412F602FCE01EBCFFC0184858823A1F01C
:100A1000218532852115310521F4611107C0158624
:100A200006C021303105D9F76111F9CF8587658579
:100A3000CF010E960C948E040895EF92FF920F93BF
:100A40001F93CF93DF93EC01062FF42EE22E8B85BC
:100A5000888B10927F0110927E011092F801109203
:100A60001A021092F60111E01093F5011092D001D4
:100A700061E082E10E94060261E083E10E940602D9
:100A80008091B9008E7F8093B9008091B9008D7FED
:100A90008093B90088E48093B80085E48093BC001B
:100AA0008AED92E09093A1018093A0018BED92E0FA
:100AB0009093A5018093A40188891093F7018093F6
:100AC00019021092F80110921A020E949B008111E3
:100AD0001CC0198B88EB92E00E94EB028E878989FB
:100AE000882339F01F861C8260E0CE010E960E949A
:100AF0008E042E2D4F2D602FCE01DF91CF911F91AF
:100B00000F91FF90EF900C94CA03198AE8CFE4ECA0
:100B1000F2E08485958501969587848708950E94E3
:100B20006E0FFB0101900020E9F73197AF01461BE2
:100B3000570BDC01ED91FC910280F381E02D0994CB
:100B40008F929F92AF92BF92CF92DF92EF92FF92DD
:100B50000F931F93CF93DF93CDB7DEB7A1970FB657
:100B6000F894DEBF0FBECDBF6B017C01F7FE43C022
:100B70006DE288EF92E00E9475038C0122273327F3
:100B8000A9012C193D094E095F0919A2CE018196D0
:100B90007C019AE0892E912CA12CB12CCA01B901BB
:100BA000A50194010E94460F605DF70162937F01E9
:100BB000211531054105510589F790E080E0309716
:100BC00029F0BF0188EF92E00E949105800F911FEC
:100BD000A1960FB6F894DEBF0FBECDBFDF91CF91C7
:100BE0001F910F91FF90EF90DF90CF90BF90AF904B
:100BF0009F908F900895AC019B0119A28E010F5D0B
:100C00001F4F8AE0C82ED12CE12CF12CCA01B9016A
:100C1000A70196010E94460F605DF80162938F0163
:100C2000211531054105510589F790E080E03097A5
:100C300079F2BF0188EF92E00E949105C9CF8F92AF
:100C40009F92AF92BF92EF92FF920F931F93CF9319
:100C5000DF93EC01EE88FF886E157F058CF51A8214
:100C60001B821C821D8220E030E04FE753E46A8142
:100C70007B818C819D810E94930E4B015C0120E061
:100C800030E0A9010E94180E20E030E040E05FE370
:100C900087FD5FC0C501B4010E94150C0E942D0D97
:100CA0008B01E880F98061E08E2D0E9452020115CF
:100CB000110509F053C060E08E2D0E9406027BC032
:100CC000088D198D60177107DCF56E197F09072EE5
:100CD000000C880B990B0E94650D4B015C01B8015B
:100CE0006E197F09072E000C880B990B0E94650D69
:100CF0009B01AC01C501B4010E94810C2AE939E9CC
:100D000049E95EE30E94140C20E030E040EC50E43E
:100D10000E94930E90580E94FB0C20E030E040E8C7
:100D20005FE30E94150C9B01AC0160E070E080E87D
:100D30009FE30E94810C6A837B838C839D8393CF86
:100D400080E090E0A0E8BFE38A839B83AC83BD830F
:100D50008ACFC501B4010E94140CA0CF0F3F11052A
:100D600011F461E0A9CFF701FF27E453FF4FE491AD
:100D7000E33009F467C048F4E130C9F0E23009F427
:100D80005CC0003811056CF796CFE73009F464C0F9
:100D9000E83009F469C0E430A1F7809180008062F6
:100DA0008093800010938B0000938A0004C084B568
:100DB000806884BD07BD8FB7F8944091CC015091F5
:100DC000CD016091CE017091CF018FBF598B488BBF
:100DD0008C899D892A893B89821B930B840F951FDF
:100DE0009D8B8C8B5B8B4A8B2E853F85821793075F
:100DF000C8F0821B930B9D8B8C8BF8944C855D8582
:100E000028E532E0429FC001439F900D529F900D14
:100E100011246A857B850E94320F798768871D8639
:100E20001C867894DF91CF911F910F91FF90EF90E6
:100E3000BF90AF909F908F90089584B5806284BDDD
:100E400008BDB9CF809180008068809380001093A6
:100E5000890000938800AFCF8091B00080688093B4
:100E6000B0000093B300A7CF8091B0008062809360
:100E7000B0000093B4009FCF1F920F920FB60F9255
:100E800011242F933F934F935F936F937F938F938F
:100E90009F93AF93BF93EF93FF938BE192E00E94F8
:100EA0007701FF91EF91BF91AF919F918F917F91CA
:100EB0006F915F914F913F912F910F900FBE0F90C7
:100EC0001F9018951F920F920FB60F9211242F9317
:100ED0008F939F93EF93FF93E0912B02F0912C025D
:100EE0008081E0913102F091320282FD1BC090813D
:100EF000809134028F5F8F7320913502821741F009
:100F0000E0913402F0E0E55EFD4F958F809334026E
:100F1000FF91EF919F918F912F910F900FBE0F90A6
:100F20001F9018958081F4CF1F920F920FB60F92E9
:100F300011242F933F938F939F93AF93BF938091EF
:100F4000CC019091CD01A091CE01B091CF01309113
:100F5000C70123E0230F2D3758F50196A11DB11DC0
:100F60002093C7018093CC019093CD01A093CE0133
:100F7000B093CF018091C8019091C901A091CA019D
:100F8000B091CB010196A11DB11D8093C801909332
:100F9000C901A093CA01B093CB01BF91AF919F91BA
:100FA0008F913F912F910F900FBE0F901F9018952A
:100FB00026E8230F0296A11DB11DD2CF1F920F92DA
:100FC0000FB60F9211242F933F934F935F936F931C
:100FD0007F938F939F93AF93BF93EF93FF93E09192
:100FE0000201F09103010995FF91EF91BF91AF913B
:100FF0009F918F917F916F915F914F913F912F9131
:101000000F900FBE0F901F9018951F920F920FB662
:101010000F9211242F933F934F935F936F937F937E
:101020008F939F93AF93BF93EF93FF93E091000152
:10103000F09101010995FF91EF91BF91AF919F91BF
:101040008F917F916F915F914F913F912F910F9071
:101050000FBE0F901F9018951F920F920FB60F9210
:1010600011242F933F934F935F936F937F938F93AD
:101070009F93AF93BF93EF93FF938091B900887FC5
:10108000803609F44AC0F0F5883209F4A7C018F593
:10109000803109F49BC0B8F4882309F4F9C0883082
:1010A00009F494C0FF91EF91BF91AF919F918F91FF
:1010B0007F916F915F914F913F912F910F900FBE54
:1010C0000F901F901895883109F488C0803251F72D
:1010D0008093F40114C0803409F49DC040F480333F
:1010E000B9F38833F9F68093F40185ECB0C080350C
:1010F00009F485C0883509F496C0883499F60E94B1
:10110000A902D0CF883909F48CC038F5883729F086
:1011100050F4883611F0803729F683E08093F60189
:101120001092C60157C0883809F47BC0803919F085
:10113000803809F0B7CF8091C601803208F071C0C5
:10114000E091C60181E08E0F8093C6018091BB00C3
:10115000F0E0EA55FE4F80833DC0803B39F0E0F47B
:10116000803A09F479C0883A09F09CCF84E08093F2
:10117000F6011092A3011092A201E091A001F0915A
:10118000A10109958091A20181110FC081E0809396
:10119000A2011092800109C0803C09F4A6CF883CCE
:1011A00009F4A3CF883B09F07DCFE091A30181E052
:1011B0008E0F8093A301F0E0E058FE4F8081809372
:1011C000BB009091A3018091A20129C08091D1011F
:1011D0008093BB0085EC8093BC0064CF9091F301B9
:1011E0008091F201981758F5E091F30181E08E0F9C
:1011F0008093F301F0E0EE52FE4F8081E9CFE09161
:10120000F30181E08E0F8093F3018091BB00F0E049
:10121000EE52FE4F80839091F3018091F201981776
:10122000C8F285E8D8CFE091F30181E08E0F80937A
:10123000F3018091BB00F0E0EE52FE4F808380917D
:10124000F50181115CCF81E08093D00184EA809325
:10125000BC001092F60126CF85EC8093BC00109262
:10126000F6018091C601803230F4E091C601F0E0D1
:10127000EA55FE4F10826091C60170E0E091A40132
:10128000F091A50186EA91E009951092C6010ACF76
:101290001092F40134CFFC01138212821582148261
:1012A00017821682718360832FB7F8948091CC01E6
:1012B0009091CD01A091CE01B091CF012FBF93832A
:1012C0008283958384830895AF92BF92CF92DF92F9
:1012D000EF92FF920F931F93CF93DF93EBE1F2E036
:1012E0001382128288EE93E0A0E0B0E084839583BD
:1012F000A683B78320E131E03183208325EC30E001
:101300003587248724EC30E03787268720EC30E0CF
:10131000318B208B21EC30E0338B228B22EC30E0C0
:10132000358B248B26EC30E0378B268B118E128E7A
:10133000138E148EE8EBF2E013821282848395837D
:10134000A683B78382E291E091838083C4ECD2E0EC
:101350001A821B821C821D821986188602E010E008
:101360001B870A871D861C866AEF70E082ED92E07B
:101370000E944B091F830E8384E0A82EB12CBB86EC
:10138000AA8698E2C92ED12CDF8ACE8A20E5E22EE9
:10139000F12CF98EE88E89E090E0998388831C8E89
:1013A0001D8E1E8E1F8E1BA21AA21DA30CA31FA290
:1013B0001EA26AEF70E08CEE92E00E944B0983E07F
:1013C00090E099A388A3BDA2ACA2D9AAC8AAFBAAFF
:1013D000EAAA8AE090E09B8F8A8F1FAA1EAA84E364
:1013E00091E09DAB8CAB109208038FEF80930703C5
:1013F000109206031092090387E28FAF1092040344
:10140000109205031EAE1DAE84E080930A0382E0B5
:1014100080930B0381E080930C0380E180930D03A4
:1014200080E280930E0380E480930F0380E8809332
:10143000100350E040E063E088EF92E00E94610317
:1014400064EF71E081E193E00E944B0910921A036E
:101450001092190310921C0310921B031092200388
:1014600010921F031092240310922303109225035D
:10147000DF91CF911F910F91FF90EF90DF90CF9070
:10148000BF90AF900895789484B5826084BD84B590
:10149000816084BD85B5826085BD85B5816085BD6F
:1014A00080916E00816080936E0010928100809127
:1014B00081008260809381008091810081608093AF
:1014C0008100809180008160809380008091B100D4
:1014D00084608093B1008091B00081608093B000FF
:1014E00080917A00846080937A0080917A00826093
:1014F00080937A0080917A00816080937A00809155
:101500007A00806880937A001092C100E0912B02EB
:10151000F0912C0282E08083E0912702F091280272
:101520001082E0912902F0912A028FEC80831092C0
:101530003302E0912F02F091300286E08083E09147
:101540002D02F0912E02808180618083E0912D0236
:10155000F0912E02808188608083E0912D02F091CD
:101560002E02808180688083E0912D02F0912E020E
:1015700080818F7D808361E08091C4020E9452024D
:1015800061E08091DE020E94520220E042E060E1D0
:1015900088EF92E00E941D056FEF88EF92E00E94B5
:1015A000040562E082E00E94520287E895E0909391
:1015B000010180930001809169008360809369003C
:1015C000E89AF0E0AF2EF0E0BF2E992493948BE1DF
:1015D00092E00E945701892BB1F1D0E0C0E010E009
:1015E00008C090922503FBCF8C3319F4D0E0C0E003
:1015F00011E08BE192E00E945701892B91F08091DC
:10160000250381110EC08BE192E00E943501112368
:1016100059F38E3331F3C75EDC4F8D87C1E0D0E0E4
:10162000E8CF4091260320912703483409F0BAC03F
:10163000233509F0B7C064E471E08BE192E00E94C9
:101640009105109225030091190310911A03C0917E
:101650001B03D0911C03B80184EC92E00E941F068A
:10166000BE018EED92E00E941F06E090E602F0902F
:10167000E702C090CC02D090CD028FB7F894409191
:10168000CC015091CD016091CE017091CF018FBFFF
:101690005093140340931303809117039091180300
:1016A000840F951F2091150330911603821B930B15
:1016B00090931803809317035093160340931503D8
:1016C00020911103309112038217930708F45EC032
:1016D000821B930B909318038093170380E00E9462
:1016E000880369E471E088EF92E00E949105B801F7
:1016F000110F880B990B0E94A0056FED88EF92E007
:101700000E9475036EE471E088EF92E00E949105FB
:10171000B601DD0C880B990B0E94A00561E571E014
:1017200088EF92E00E94910565E571E088EF92E014
:101730000E94910581E00E94880369E571E088EFCD
:1017400092E00E949105BE01DD0F880B990B0E946B
:10175000A0056FED88EF92E00E9475036EE471E0E2
:1017600088EF92E00E949105B701FF0C880B990B5E
:101770000E94A00561E571E088EF92E00E9491056A
:1017800065E571E088EF92E00E949105A114B10433
:1017900009F41DCF0E946301882309F418CF0E9429
:1017A000000015CF042E000C550B50931A034093E4
:1017B000190380911F0390912003BC016F5F7F4F3D
:1017C0007093200360931F03880F991FFC01E35E51
:1017D000FC4F518340831616170624F41092200301
:1017E00010921F03022E000C330B30931C03209326
:1017F0001B038091230390912403AC014F5F5F4F43
:101800005093240340932303880F991FFC01EF5D3D
:10181000FC4F31832083141615060CF012CF109262
:101820002403109223030DCF5058BB27AA270E94F0
:101830002C0C0C94DE0D0E94D00D38F00E94D70DB8
:1018400020F039F49F3F19F426F40C94A60D0EF401
:10185000E095E7FB0C94A00DE92F0E94EF0D58F3E3
:10186000BA17620773078407950720F079F4A6F585
:101870000C94110E0EF4E0950B2EBA2FA02D0B0137
:10188000B90190010C01CA01A0011124FF27591BC5
:1018900099F0593F50F4503E68F11A16F040A22FCB
:1018A000232F342F4427585FF3CF4695379527953C
:1018B000A795F0405395C9F77EF41F16BA0B620B3B
:1018C000730B840BBAF09150A1F0FF0FBB1F661F82
:1018D000771F881FC2F70EC0BA0F621F731F841FC5
:1018E00048F4879577956795B795F7959E3F08F0EB
:1018F000B0CF9395880F08F09927EE0F97958795AD
:1019000008950E94950C0C94DE0D0E94D70D58F09E
:101910000E94D00D40F029F45F3F29F00C94A00DF7
:1019200051110C94120E0C94A60D0E94EF0D68F349
:101930009923B1F3552391F3951B550BBB27AA2788
:1019400062177307840738F09F5F5F4F220F331FC2
:10195000441FAA1FA9F335D00E2E3AF0E0E832D08A
:1019600091505040E695001CCAF72BD0FE2F29D08D
:10197000660F771F881FBB1F261737074807AB075F
:10198000B0E809F0BB0B802DBF01FF2793585F4FD4
:101990003AF09E3F510578F00C94A00D0C94120E75
:1019A0005F3FE4F3983ED4F3869577956795B795B6
:1019B000F7959F5FC9F7880F911D9695879597F9C1
:1019C0000895E1E0660F771F881FBB1F621773073A
:1019D0008407BA0720F0621B730B840BBA0BEE1F4F
:1019E00088F7E095089529F416F00C94A00D0C9456
:1019F000110E0C94A60D0E94F70DA8F39638A0F7CF
:101A000007F80F92E8942BE33AEA48EB5FE70E946D
:101A1000A90E0F920F920F924DB75EB70F920E94D0
:101A20005F0EE8E6F0E00E94A90D4F915F91EF9103
:101A3000FF91E595EE1FFF1F49F0FE57E068442730
:101A4000EE0F441FFA95E1F74195550B0E94290EC0
:101A50000F9007FE0C941D0E08950E94340D68949B
:101A6000B1110C94120E08950E94F70D88F09F5743
:101A700098F0B92F9927B751B0F0E1F0660F771FB2
:101A8000881F991F1AF0BA95C9F714C0B13091F0A8
:101A90000E94110EB1E008950C94110E672F782F5B
:101AA0008827B85F39F0B93FCCF38695779567956D
:101AB000B395D9F73EF490958095709561957F4FD9
:101AC0008F4F9F4F0895E89409C097FB3EF490957F
:101AD0008095709561957F4F8F4F9F4F9923A9F007
:101AE000F92F96E9BB279395F69587957795679596
:101AF000B795F111F8CFFAF4BB0F11F460FF1BC0DA
:101B00006F5F7F4F8F4F9F4F16C0882311F096E96C
:101B100011C0772321F09EE8872F762F05C066231A
:101B200071F096E8862F70E060E02AF09A95660FD3
:101B3000771F881FDAF7880F9695879597F908958C
:101B400097F99F6780E870E060E008959FEF80EC70
:101B50000895DF93CF931F930F93FF92EF92DF923D
:101B60007B018C01689406C0DA2EEF010E94A60E5C
:101B7000FE01E894A5912591359145915591A6F3E3
:101B8000EF010E942C0CFE019701A801DA9469F77D
:101B9000DF90EF90FF900F911F91CF91DF9108950B
:101BA00000240A941616170618060906089500243C
:101BB0000A9412161306140605060895092E0394B6
:101BC000000C11F4882352F0BB0F40F4BF2B11F42A
:101BD00060FF04C06F5F7F4F8F4F9F4F089557FD89
:101BE0009058440F551F59F05F3F71F04795880F8B
:101BF00097FB991F61F09F3F79F087950895121622
:101C000013061406551FF2CF4695F1DF08C01616CD
:101C100017061806991FF1CF86957105610508947E
:101C20000895E894BB2766277727CB0197F9089595
:101C30000E94000F08F48FEF08959B01AC0160E053
:101C400070E080E89FE30C94810C0C94A00D0C9440
:101C5000240F0E94F70DD8F39923C9F3940F511D57
:101C6000A3F39150504094F059F0882332F0660F5E
:101C7000771F881F91505040C1F79E3F51052CF7A8
:101C8000880F911D9695879597F908955F3FACF061
:101C9000983E9CF0BB27869577956795B79508F495
:101CA000B1609395C1F7BB0F58F711F460FFE8CF0F
:101CB0006F5F7F4F8F4F9F4FE3CF0C94120EFA014F
:101CC000DC01AA0FBB1F9B01AC01BF5728F42227E0
:101CD00033274427507820C0B75190F4AB2F00240D
:101CE000469537952795011CA395D2F3002071F0F6
:101CF000220F331F441FB395DAF30ED00C94140C4B
:101D000061307105A0E88A07B94630F49B01AC0147
:101D10006627772788279078309621F020833183B3
:101D20004283538308950E94A60E0C94DE0D0E94F8
:101D3000D00D38F00E94D70D20F0952311F00C94AF
:101D4000A00D0C94A60D11240C94120E0E94EF0D00
:101D500070F3959FC1F3950F50E0551F629FF001FE
:101D6000729FBB27F00DB11D639FAA27F00DB11D17
:101D7000AA1F649F6627B00DA11D661F829F2227A0
:101D8000B00DA11D621F739FB00DA11D621F839F27
:101D9000A00D611D221F749F3327A00D611D231FFD
:101DA000849F600D211D822F762F6A2F11249F574B
:101DB00050409AF0F1F088234AF0EE0FFF1FBB1F4E
:101DC000661F771F881F91505040A9F79E3F51050D
:101DD00080F00C94A00D0C94120E5F3FE4F3983E3B
:101DE000D4F3869577956795B795F795E7959F5FB7
:101DF000C1F7FE2B880F911D9695879597F9089549
:101E0000990F0008550FAA0BE0E8FEEF161617060B
:101E1000E807F907C0F012161306E407F50798F073
:101E2000621B730B840B950B39F40A2661F0232B8C
:101E3000242B252B21F408950A2609F4A140A69508
:101E40008FEF811D811D08959F3F31F0915020F447
:101E5000879577956795B795880F911D9695879586
:101E600097F90895AA1BBB1B51E107C0AA1FBB1F0E
:101E7000A617B70710F0A61BB70B881F991F5A9516
:101E8000A9F780959095BC01CD010895A1E21A2E85
:101E9000AA1BBB1BFD010DC0AA1FBB1FEE1FFF1F0E
:101EA000A217B307E407F50720F0A21BB30BE40B5E
:101EB000F50B661F771F881F991F1A9469F76095A5
:101EC0007095809590959B01AC01BD01CF0108955F
:101ED000EE0FFF1F0590F491E02D099481E090E052
:0A1EE000F8940C94730FF894FFCFF0
:101EEA00A802A8020040145400401050000000004C
:101EFA009901F9002601E60157013501490100005F
:101F0A000000320305038B04F800FE02EB02DC0238
:101F1A00000000007503F9008B048A041D056103A3
:101F2A000405E5043C41433E004350553A00432032
:0E1F3A000052504D00202020004750553A0024
:00000001FF
